:100000000C94CE000C947D050C9456050C942F0591
:100010000C9408050C94F6000C94F6000C94E10482
:100020000C94F6000C94F6000C94A4050C941306A2
:100030000C94F6000C94F6000C94F6000C94F60068
:100040000C94F6000C94F6000C94F6000C94F60058
:100050000C94F6000C94F6000C94F6000C949704A3
:100060000C94F6000C94F6000C94F6000C94F60038
:100070000C94F6000C94F6000C94F6000C94F60028
:100080000C94F6000C94F6000C94F6000C94F60018
:100090000C94F6000C94F6000C94F6000C94F60008
:1000A0000C94F6000C94F6000C94F600080B000279
:1000B0000202000009040000010202000005240001
:1000C0001001052401010104240206052406000193
:1000D0000705810310004009040100020A00000026
:1000E00007050202400000070583024000000403E8
:1000F000090412010002EF02014041233680000191
:100100000102030141726475696E6F204C4C43001B
:1001100041726475696E6F204C656F6E6172646FB9
:100120000000000000240027002A002D00300000FD
:10013000000000250028002B002E003100040404DC
:10014000040403040502020202040302020202067E
:10015000060606060604040202020404040802015C
:100160001040804010204080408008020401804000
:1001700020100201108010204040200000000200EA
:10018000090F0000030401000C0000000000000043
:1001900000000000000000000000F80B11241FBE4A
:1001A000CFEFDAE0DEBFCDBF11E0A0E0B1E0EEE6D8
:1001B000F8E102C005900D92A034B107D9F722E012
:1001C000A0E4B1E001C01D92A133B207E1F710E055
:1001D000CEECD0E004C02197FE010E942F0CCD3C54
:1001E000D107C9F70E9445080C94350C0C94000007
:1001F000FC018091E001882311F13FB7F89482E07F
:100200008093E9002091F200822F90E018161906E1
:1002100014F481E090E0882339F0289844E6409374
:10022000DF014091F1004083222339F02091F20058
:10023000211103C02BE62093E8003FBF08958FEF04
:100240009FEF08952FB7F89483E08093E900909191
:10025000E800892F807295FF04C09091F20080E43D
:10026000891B2FBF08958091D70181110DC082E0B5
:100270008093D30184E08093D4011092D601109230
:10028000D50181E08093D70183ED91E00895282F77
:1002900030E0F901E558FE4F9491F901E45AFE4F20
:1002A0008491235C3E4FF9012491222309F430C04C
:1002B0009923E9F091509F30D0F4E92FF0E0ED5907
:1002C000FE4F0C942F0C91019501720189018D0153
:1002D00077017701770198019E01A201A601AC0187
:1002E0007701B001909180009F7790938000E22F7A
:1002F000F0E0EE0FFF1FE15DFE4FA591B4919FB7B7
:10030000F894EC91611132C080958E238C939FBF3D
:100310000895909180009F7DE8CF90918000977F15
:10032000E4CF94B59F7794BDE2CF94B59F7DFBCF8A
:10033000909190009F7790939000D9CF90919000EA
:100340009F7DF9CF90919000977FF5CF9091C0005D
:100350009F779093C000CBCF9091C0009F7DF9CF45
:100360009091C200977F9093C200C1CF8E2BCECFC9
:10037000CF93DF9390E0FC01E45AFE4F2491835C1D
:100380009E4FFC0184918823D1F090E0880F991F43
:10039000FC01EF5DFE4FA591B491FC01E15DFE4FC4
:1003A000C591D491623071F49FB7F8943C91822F3B
:1003B000809583238C93E8812E2B28839FBFDF9128
:1003C000CF9108958FB7F894EC912E2B2C938FBF7B
:1003D000F6CF3FB7F8948091CF019091D001A091D2
:1003E000D101B091D20126B5A89B05C02F3F19F0CD
:1003F0000196A11DB11D3FBFBA2FA92F982F8827A5
:10040000BC01CD01620F711D811D911D42E0660F7F
:10041000771F881F991F4A95D1F708958F929F9251
:10042000AF92BF92CF92DF92EF92FF924B015C01AD
:100430000E94E9016B017C010E94E9016C197D09B0
:100440008E099F09683E734081059105A8F321E05C
:10045000821A9108A108B10888EEC80E83E0D81E60
:10046000E11CF11C81149104A104B10429F7FF904F
:10047000EF90DF90CF90BF90AF909F908F900895B6
:10048000209100013091010181E090E0232B11F0D7
:1004900090E080E090930101809300010895089519
:1004A000409142015091430120914001309141011E
:1004B00042175307B4F49091E8009570E1F39091DE
:1004C000E80092FD19C08093F10080914201909163
:1004D000430101968F739927892B19F48EEF80932E
:1004E000E80080914201909143010196909343016D
:1004F0008093420181E0089580E00895EF92FF9299
:100500000F931F93CF93DF93F82E192FE62E042F0E
:1005100081E0860F880F0E94500283E00E94500203
:10052000CF2DD12FEC0EFD2EF11CCE15DF05B9F02D
:1005300007FF13C0FE0184910E945002182F80E033
:100540000E945002812321968111EFCFDF91CF913C
:100550001F910F91FF90EF9008958881EDCF81E07A
:10056000F5CFDF92EF92FF920F931F93CF93DF931C
:10057000D82E8A01EB017B01E40EF51ECE15DF05B6
:1005800059F0D7FE12C0FE0184910E9450022196BC
:100590008111F4CF0FEF1FEFC801DF91CF911F91B1
:1005A0000F91FF90EF90DF9008958881EECF0F9329
:1005B0001F93CF93DF931F92CDB7DEB782E089837D
:1005C00042E450E06CEA70E080E80E94B1020E94D0
:1005D0003301DC0112960D911C910115110589F072
:1005E000D801ED91FC910280F381E02DBE016F5F97
:1005F0007F4FC801099597FD04C0F801008511855A
:10060000ECCF89810F90DF91CF911F910F910895C9
:10061000615030F02091F100FC0120830196F8CF69
:10062000289884E68093DF0108958F929F92AF927D
:10063000BF92CF92DF92EF92FF920F931F93CF93CF
:10064000DF936C017B018A0180910D01882309F4FD
:100650005CC08091E001882309F457C08091460175
:1006600080FF05C08091E00082608093E000E80197
:10067000B12C8AEFA82E93E0892E2AE3922E2097A0
:1006800011F4BB20D9F10E94220181110AC0AA9461
:10069000AA20D9F161E070E080E090E00E940E02B3
:1006A000EECF8C171D0611F00CF08C2F9FB7F8942D
:1006B0008092E9002091E80025FD02C09FBFDFCFB6
:1006C000282F30E0C21BD30BF701815020F041915D
:1006D0004093F100FACFE20EF31EBB2021F090927E
:1006E000E800B12CEBCF8091E80085FDE7CF909238
:1006F000E800BB24B394209709F3F3CF5D9884E618
:1007000080934501101611063CF081E090E0F6015F
:100710009383828310E000E0C801DF91CF911F91A5
:100720000F91FF90EF90DF90CF90BF90AF909F9090
:100730008F900895CF93DF931F92CDB7DEB7698373
:10074000DC01ED91FC910280F381E02D41E050E06D
:10075000BE016F5F7F4F09950F90DF91CF91089594
:1007600083E08093E9008091F200882319F08AE306
:100770008093E80008950E94220190E00895CF93AD
:10078000DF931F92CDB7DEB7FC018485958597FD79
:1007900008C02FEF3FEF358724870F90DF91CF916F
:1007A0000895CE0101960E94F800019719F48981FD
:1007B00090E0F3CF8FEF9FEFF0CF0F931F93CF9386
:1007C000DF931F92CDB7DEB78C01FC018485958540
:1007D00097FF0BC0CE0101960E94F800019771F4BB
:1007E000898190E0F80195878487F8018485958553
:1007F0000F90DF91CF911F910F9108958FEF9FEF91
:10080000F1CFFC018485958597FD0BC09FB7F894C7
:1008100082E08093E9008091F2009FBF90E0019612
:1008200008959FB7F89482E08093E9008091F200E8
:100830009FBF90E00895FC0101900020E9F73197F7
:10084000AF01481B590BBC0181EE91E00C941503DC
:100850008F929F92AF92BF920F931F93CF93DF938C
:10086000CDB7DEB7A1970FB6F894DEBF0FBECDBFF0
:1008700019A2423008F44AE08E010F5D1F4F842E0A
:10088000912CB12CA12CA50194010E940D0CE62FF6
:10089000B901CA01EA30F4F4E05DD801EE938D01AC
:1008A000232B242B252B79F790E080E0109719F06B
:1008B000CD010E941B04A1960FB6F894DEBF0FBEB7
:1008C000CDBFDF91CF911F910F91BF90AF909F90BF
:1008D0008F900895E95CE1CF90914901911102C098
:1008E00068EB7BE021E030E03093010120930001D0
:1008F0004230510544F0FA01EE0FFF1FEE0FFF1FCB
:1009000035973197F1F78EBD00000DB407FEFDCF8E
:100910008EB520910001309101012130310531F473
:1009200061507109B1F791E09093490108951F92C8
:100930000F920FB60F9211242F933F938F939F9393
:10094000AF93BF938091CB019091CC01A091CD0149
:10095000B091CE013091CA0123E0230F2D3758F515
:100960000196A11DB11D2093CA018093CB019093E4
:10097000CC01A093CD01B093CE018091CF01909195
:10098000D001A091D101B091D2010196A11DB11D5C
:100990008093CF019093D001A093D101B093D20165
:1009A000BF91AF919F918F913F912F910F900FBE6B
:1009B0000F901F90189526E8230F0296A11DB11DD8
:1009C000D2CF1F920F920FB60F9211242F933F9305
:1009D0004F935F936F937F938F939F93AF93BF9347
:1009E000EF93FF93E0911601F09117010995FF91A4
:1009F000EF91BF91AF919F918F917F916F915F9197
:100A00004F913F912F910F900FBE0F901F9018950F
:100A10001F920F920FB60F9211242F933F934F9373
:100A20005F936F937F938F939F93AF93BF93EF9356
:100A3000FF93E0911401F09115010995FF91EF9159
:100A4000BF91AF919F918F917F916F915F914F91E6
:100A50003F912F910F900FBE0F901F9018951F92EE
:100A60000F920FB60F9211242F933F934F935F93E2
:100A70006F937F938F939F93AF93BF93EF93FF9366
:100A8000E0911201F09113010995FF91EF91BF914F
:100A9000AF919F918F917F916F915F914F913F9116
:100AA0002F910F900FBE0F901F9018951F920F92CD
:100AB0000FB60F9211242F933F934F935F936F9331
:100AC0007F938F939F93AF93BF93EF93FF93E091A7
:100AD0001001F09111010995FF91EF91BF91AF9134
:100AE0009F918F917F916F915F914F913F912F9146
:100AF0000F900FBE0F901F9018951F920F920FB678
:100B00000F9211242F933F934F935F936F937F9393
:100B10008F939F93AF93BF93EF93FF93E0910E0159
:100B2000F0910F010995FF91EF91BF91AF919F91C6
:100B30008F917F916F915F914F913F912F910F9086
:100B40000FBE0F901F9018951F920F920FB60F9225
:100B500011248F939F938091E1009091E100937F06
:100B60009093E10083FF0FC01092E90091E0909311
:100B7000EB001092EC0092E39093ED001092E001F4
:100B800098E09093F00082FF22C093E09093E900F8
:100B90009091F200992319F09AE39093E8009091D4
:100BA0004501992341F09091450191509093450161
:100BB000911101C05D9A9091DF01992341F09091CC
:100BC000DF0191509093DF01911101C0289A84FFB9
:100BD00018C08091E2008E7E81608093E200809157
:100BE000E1008F7E8093E100809146018E7E8061DE
:100BF000809346019F918F910F900FBE0F901F9091
:100C0000189580FFF7CF8091E2008E7E80618093FF
:100C1000E2008091E1008E7E8093E10080914601A8
:100C20008E7E8160E5CF1F920F920FB60F92112436
:100C3000CF92DF92EF92FF920F931F932F933F93E8
:100C40004F935F936F937F938F939F93AF93BF93D4
:100C5000EF93FF93CF93DF93CDB7DEB76C97DEBFF3
:100C6000CDBF1092E9008091E80083FF25C068E0C5
:100C7000CE0145960E94080382EF8093E8008D899B
:100C800087FF39C09091E80090FFFCCF982F9076B5
:100C900009F034C19E894F89588D2F89F88C9111A4
:100CA00031C0803861F5809147018093F100109246
:100CB000F1008EEF8093E8006C960FB6F894DEBFDB
:100CC0000FBECDBFDF91CF91FF91EF91BF91AF915B
:100CD0009F918F917F916F915F914F913F912F9154
:100CE0001F910F91FF90EF90DF90CF900F900FBE6C
:100CF0000F901F9018959EEF9093E800C7CF109229
:100D0000F100D5CF913059F48111D3CF4130510545
:100D100081F6809147018D7F80934701CACF933040
:100D200049F48111C6CF4130510519F68091470130
:100D30008260F2CF953041F48091E80080FFFCCFD3
:100D400020682093E300B5CF963009F0A9C00B8D41
:100D50001C8D22E01092E900109243011092420192
:100D6000F2122EC010924101109240010E94D7024F
:100D70001F8299E09983FA8291E09E8390EA988796
:100D80009AEF99872091420130914301275F3F4FAD
:100D90003C832B838D831092E900109243011092C3
:100DA0004201109341010093400149E050E0BE012F
:100DB0006F5F7F4F80E00E94B1020E94D70279CF1F
:100DC00010934101009340010E943301DC0112960F
:100DD0000D911C910115110509F451C1D801ED9136
:100DE000FC910480F581E02DBE016B5E7F4FC80150
:100DF0000995009709F03EC1F80100851185EACFF9
:100E0000F3E0FF120EC08F89882309F440C08230BE
:100E100061F440E860E180E191E00E947E0281118E
:100E200048CF81E28093EB0047CF813029F440E83E
:100E30006BE084E091E0F1CF833099F70E943301B9
:100E4000DC011296ED90FC908E010F5F1F4F680140
:100E5000E114F10479F0D701ED91FC910680F7815E
:100E6000E02DB801C7010995080F111DF701E084B5
:100E7000F184EECFD8011C92F60101900020E9F731
:100E80003197BF016C197D0940E0C601C6CF6EEEF7
:100E900070E0FB01449150E080E80E94B10209CF6C
:100EA000973009F4BECF983021F481E08093F100AF
:100EB00000CF993009F0FDCE837009F0B2CFEBE29C
:100EC000F1E081E031E096E32191222371F08093FB
:100ED000E9003093EB00DF0111972C912093EC0097
:100EE0009093ED008F5F873079F78EE78093EA006B
:100EF0001092EA008F898093E001DBCE8B8D9C8D70
:100F00001092E90010924301109242019093410126
:100F100080934001898D811192C08E899D89913A7B
:100F200049F4813209F07DCF47E050E066E071E09E
:100F300080E0B3CF913209F074CF833269F48F89A6
:100F4000988DB0E0A0E08093020190930301A093FC
:100F50000401B0930501ADCE803269F48091E800C0
:100F600082FFFCCF67E086E091E00E9408038BEFF0
:100F70008093E8009ECE823209F09BCE8F898093C9
:100F80000D01EEEFFFE7859194918B3F9C4D51F160
:100F9000E0E0F8E08091060190910701A09108013E
:100FA000B0910901803B9440A105B105F1F4809115
:100FB0000D0180FD1AC0EE3F8AE0F80789F587E74A
:100FC00097E791838083809160008093440188E15A
:100FD0009BE00FB6F894A895809360000FBE9093A5
:100FE000600067CEEEEFFAE0D5CF80819181873740
:100FF000974709F05ECEA895809160008861809344
:1010000060008091440180936000EE3F2AE0F20787
:1010100089F08091FE0A9091FF0A9183808349CEE6
:10102000808191818737980751F29093FF0A8093CE
:10103000FE0AC5CF1092FF0A1092FE0A3ACE0E9415
:101040003301DC0112960D911C910115110509F473
:10105000E8CED801ED91FC910190F081E02DBE0128
:101060006B5E7F4FC8010995811123CEF801008581
:101070001185EBCF181619060CF41BCED2CEF1E079
:10108000FF12BECE62EF70E004CFCF93DF931F92CA
:10109000CDB7DEB7789484B5826084BD84B58160B5
:1010A00084BD85B5826085BD85B5816085BD809133
:1010B0006E00816080936E001092810080918100AB
:1010C00082608093810080918100816080938100A3
:1010D0008091800081608093800080919100826087
:1010E0008093910080919100816080939100809124
:1010F00090008160809390008091C1008460809313
:10110000C1008091C10082608093C1008091C100C4
:1011100081608093C1008091C30081608093C3008F
:101120008091C00082608093C0008091C200816085
:101130008093C20080917A00846080937A008091CD
:101140007A00826080937A0080917A008160809337
:101150007A0080917A00806880937A001092E00192
:1011600010924701109246018091D70081608093D0
:10117000D70080EA8093D80089B5806189BD89B5A0
:10118000826089BD09B400FEFDCF61E070E080E0BF
:1011900090E00E940E028091D8008F7C8061809345
:1011A000D8008091E000807F8093E0008091E10092
:1011B0008E7E8093E1008DE08093E200559A209A24
:1011C0008FEF9FEF9093EE018093ED0161E08AE055
:1011D0000E94B80162E082E00E94B80161E08AE00A
:1011E0000E9447018FB78983F8948091480181114B
:1011F00027C0EEE4F1E08491EDE6F1E09491E82F70
:10120000F0E0EE0FFF1FEF5DFE4FA591B491EC9162
:10121000E92321F461E081E10E94470161E081E17D
:101220000E94B8018CB580618CBD8CB580648CBD8A
:1012300061E08FE00E94B80161E080E10E94B801A6
:10124000809148018F5F80934801E981EFBF8FE76C
:101250008CBD1DBC88E085B980E492E090931101BB
:1012600080931001809169008C6080936900E99AF5
:1012700052E5652E51E0752E60E0462E60E0562E58
:1012800081EE91E00E94010418161906C4F481EE63
:1012900091E00E94BF03823A910509F4AAC1ACF41F
:1012A000803A910509F4A3C00CF0A6C084359105DD
:1012B00009F4A4C060EE81EE91E00E949A0341140B
:1012C0005104F1F20E940000DBCF803B910509F44C
:1012D000B1C07CF5833A910569F765E070E080E084
:1012E00090E00E940E0281EE91E00E94BF037C011B
:1012F00081EE91E00E94BF038983109249018AE444
:10130000C82E81E0D82E86019EE1A92EB12C81EE57
:1013100091E00E940104892B09F0F3C1F1E0AF1ABA
:10132000B10869F261E070E080E090E00E940E0296
:10133000EECF813B910509F4B5C0823B910509F0E0
:10134000B9CF60E08AE00E9447018BE490E001970A
:10135000F1F74DE250E06CE271E081E80E946C042C
:101360004DE250E06CE271E08CE50E946C044DE2CD
:1013700050E06CE271E080E00E946C044DE250E0CD
:101380006CE271E080E00E946C04182F682F81EEFF
:1013900091E00E949A03111192CF4DE250E06CE26D
:1013A00071E080E00E946C04883009F088CF68E02A
:1013B00081EE91E00E949A032AE4E22E21E0F22ECF
:1013C00087013EE1C32ED12C81EE91E00E94010401
:1013D000892B09F0F6C081E0C81AD10809F45DC074
:1013E00061E070E080E090E00E940E02EDCF81E3CA
:1013F00091E00E941B0463CF69E05DCF81E391E03F
:101400000E941B0488E391E00E941B044AE060E014
:1014100070E0CB010E9428048AE391E00E941B0443
:1014200040E169E070E080E090E00E9428048CE3F5
:1014300091E0DFCF60E08AE00E9447018BE490E01A
:101440000197F1F74DE250E06CE271E081E80E9413
:101450006C044DE250E06CE271E08AE50E946C049D
:101460004DE250E06CE271E080E00E946C04682F75
:1014700081EE91E00E949A0302E110E04DE250E01B
:101480006CE271E080E00E946C04682F81EE91E0D4
:101490000E949A030150110989F761E08AE00E94D5
:1014A00047010DCF65E070E080E090E00E940E0201
:1014B00081EE91E00E94BF038C0160E08AE00E940F
:1014C00047018BE490E00197F1F74DE250E06CE2C8
:1014D00071E081E80E946C044DE250E06CE271E042
:1014E0008BE50E946C044DE250E06CE271E081E01B
:1014F0000E946C044DE250E06CE271E080E00E94DA
:101500006C04F82E682F81EE91E00E949A03F5E0BA
:10151000FF12D5CE11271695102F00271795079586
:101520004DE250E06CE271E0802F0E946C044DE2CD
:1015300050E06CE271E0812F0E946C044DE250E0BB
:101540006CE271E080E00E946C044DE250E06CE2DD
:1015500071E084E00E946C044DE250E06CE271E0C6
:1015600080E80E946C044DE250E06CE271E080E0A3
:101570000E946C04182F682F81EE91E00E949A035C
:10158000103809F09CCE00E810E04DE250E06CE22B
:1015900071E080E80E946C04682F81EE91E00E9467
:1015A0009A030150110989F74DE250E06CE271E0B5
:1015B00080E00E946C0467E481EE91E00E949A034F
:1015C0006CCF81EE91E00E94BF03F80181938F01FF
:1015D0006E167F0609F0F8CE4DE250E06CE271E045
:1015E000F70181917F010E946C04E016F106A1F7DA
:1015F000DBCF65E070E080E090E00E940E0281EEBB
:1016000091E00E94BF038C0181EE91E00E94BF0334
:10161000812C0829182B1092490160E08AE00E9471
:1016200047018BE490E00197F1F746E450E064EF66
:1016300071E081E80E946C044DE250E064EF71E0DB
:1016400082E50E946C044DE250E064EF71E080E0BE
:101650000E946C044DE250E064EF71E080E00E9473
:101660006C044DE250E064EF71E0802F0E946C0446
:101670004DE250E064EF71E0812F0E946C044DE276
:1016800050E060EF7AE080E00E946C0450E040E0BF
:1016900060EF7AE080E00E946C0450E040E060EF90
:1016A0007AE080E00E946C0450E040E060EF7AE075
:1016B00080E00E946C0400E810E050E040E066E941
:1016C00070E080E00E946C04682F81EE91E00E943F
:1016D0009A030150110989F750E040E064EF71E08E
:1016E00080E00E946C04682F81EE91E00E949A03D2
:1016F00050E040E064EF71E080E00E946C04682FED
:101700005BCF81EE91E00E94BF03F80181938F01CE
:10171000F1E00A3C1F0709F0FACD3980212CE228BC
:10172000F32860E08AE00E9447018BE490E0019793
:10173000F1F74DE250E06CE271E081E80E946C0448
:101740004DE250E06CE271E087E50E946C044DE2EE
:1017500050E06CE271E080E00E946C044DE250E0E9
:101760006CE271E080E00E946C044DE250E06CE2BB
:1017700071E08E2D0E946C044DE250E06CE271E04D
:101780008F2D0E946C0450E040E066E970E0F601A5
:1017900081916F010E946C040C151D05A1F781EE6B
:1017A00091E00E94BF0350E040E068EC70E00E94CE
:1017B0006C0450E040E068EC70E080E00E946C0453
:1017C00050E040E068EC70E080E00E946C0450E083
:1017D00040E070E060E080E00E946C04682F81EEE1
:1017E00091E00E949A038BEC97E00197F1F755CEB8
:1017F000E1EEF1E01382128288EE93E0A0E0B0E027
:1018000084839583A683B7838CE191E09183808361
:101810008FEF9FEF958784870895A1E21A2EAA1B68
:10182000BB1BFD010DC0AA1FBB1FEE1FFF1FA21790
:10183000B307E407F50720F0A21BB30BE40BF50B8D
:10184000661F771F881F991F1A9469F76095709516
:10185000809590959B01AC01BD01CF010895EE0FDD
:0E186000FF1F0590F491E02D0994F894FFCF3E
:10186E000100FFFFFFFF00E10000000000004F023B
:10187E004F024F024F024F02000000009A03150361
:10188E00BB03B0030104BF03DD0300C18081000070
:10189E00004D4344494E4F0020002E000D0A00001B
:00000001FF
