:100000000C9470000C9499030C9472030C94980057
:100010000C9498000C9498000C9498000C94980000
:100020000C9498000C9498000C9498000C949800F0
:100030000C9498000C9498000C9498000C949800E0
:100040000C942C030C9498000C94E6030C94C003BD
:100050000C9498000C9498000C9498000C949800C0
:100060000C9498000C9498000C9400000C940000E0
:100070000C9400000C9400000000000024002700F5
:100080002A002D0000000000250028002B002E0073
:10009000040404040404040402020202020203032E
:1000A000030303030505050505050503010204080F
:1000B00010204080010204081020010204081020D2
:1000C0000208010410402040000000085002010016
:1000D0000003040700000000000000000000CB0740
:1000E00011241FBECFEFD8E0DEBFCDBF11E0A0E0EE
:1000F000B1E0E4E4F0E102C005900D92A632B10750
:10010000D9F722E0A6E2B1E001C01D92AE34B207F9
:10011000E1F710E0C0E7D0E004C02197FE010E94A3
:100120001A08CF36D107C9F70E9418040C9420088A
:100130000C940000E2EDF0E02491E6EBF0E0349165
:10014000EAE9F0E09491992361F12223C9F021506A
:100150002B30B0F4E22FF0E0E055FF4F0C941A087A
:10016000D600DA00BB00D200C000C000DD00E30012
:10017000E700ED00F100209180002F7720938000B0
:10018000E92FF0E0EE0FFF1FEC57FF4FA591B49160
:100190009FB7F894EC91811128C030953E233C9391
:1001A0009FBF0895209180002F7DE8CF24B52F7741
:1001B00024BDE6CF24B52F7DFBCF2091B0002F7753
:1001C0002093B000DDCF2091B0002F7DF9CF20919A
:1001D00090002F7720939000D3CF209190002F7D17
:1001E000F9CF20919000277FF5CF3E2BD8CFCF932A
:1001F000DF93282F30E0F901E455FF4F4491205759
:100200003F4FF9012491843019F483E08093A000DA
:100210002223D9F0822F90E0880F991FFC01E85823
:10022000FF4FA591B491FC01EC57FF4FC591D491BC
:10023000623071F49FB7F8942C91842F80958223BB
:100240008C93E8814E2B48839FBFDF91CF91089517
:100250008FB7F894EC914E2B4C938FBFF6CF3FB7EE
:10026000F8948091AD019091AE01A091AF01B09151
:10027000B00126B5A89B05C02F3F19F00196A11D1E
:10028000B11D3FBFBA2FA92F982F8827BC01CD01E0
:10029000620F711D811D911D660F771F881F991FA9
:1002A00008958F929F92AF92BF92CF92DF92EF927A
:1002B000FF924B015C010E942F016B017C010E94A7
:1002C0002F016C197D098E099F09683E73408105D5
:1002D0009105A8F321E0821A9108A108B10888EEDF
:1002E000C80E83E0D81EE11CF11C81149104A10406
:1002F000B10429F7FF90EF90DF90CF90BF90AF90BF
:100300009F908F900895209100013091010181E02C
:1003100090E0232B11F090E080E090930101809316
:10032000000108950895AF92BF92CF92DF92EF92AD
:10033000FF920F931F93CF93DF936C017B018B018F
:10034000040F151FEB015E01AE18BF08C017D107DF
:1003500059F06991D601ED91FC910190F081E02D69
:10036000C6010995892B79F7C501DF91CF911F91BE
:100370000F91FF90EF90DF90CF90BF90AF900895D6
:10038000FC01538D448D252F30E0842F90E0821B9B
:10039000930B541710F0CF96089501970895FC0120
:1003A000918D828D981761F0A28DAE0FBF2FB11D78
:1003B0005D968C91928D9F5F9F73928F90E00895D0
:1003C0008FEF9FEF0895FC01918D828D981731F08A
:1003D000828DE80FF11D858D90E008958FEF9FEFDE
:1003E0000895FC01918D228D892F90E0805C9F4FB4
:1003F000821B91098F739927089581EB91E00E94E8
:10040000F10121E0892B09F420E0822F089580E09A
:1004100090E0892B29F00E94FD0181110C940000CD
:100420000895FC01A48DA80FB92FB11DA35ABF4F89
:100430002C91848D90E001968F739927848FA689E3
:10044000B7892C93A089B1898C91837080648C9337
:10045000938D848D981306C00288F389E02D8081E6
:100460008F7D80830895EF92FF920F931F93CF9318
:10047000DF93EC0181E0888F9B8D8C8D98131AC0DF
:10048000E889F989808185FF15C09FB7F894EE89C6
:10049000FF896083E889F989808183708064808323
:1004A0009FBF81E090E0DF91CF911F910F91FF906E
:1004B000EF900895F62E0B8D10E00F5F1F4F0F7316
:1004C0001127E02E8C8D8E110CC00FB607FCFACFD1
:1004D000E889F989808185FFF5CFCE010E9411025C
:1004E000F1CFEB8DEC0FFD2FF11DE35AFF4FF082A2
:1004F0009FB7F8940B8FEA89FB8980818062CFCF08
:10050000682F81EB91E00C943302CF93DF93EC01E1
:10051000888D8823B9F0AA89BB89E889F9898C91EB
:1005200085FD03C0808186FD0DC00FB607FCF7CFA7
:100530008C9185FFF2CF808185FFEDCFCE010E94A7
:100540001102E9CFDF91CF910895FC0101900020C5
:10055000E9F73197AF01481B590BBC0181EB91E0E2
:100560000C9493018F929F92AF92BF920F931F931F
:10057000CF93DF93CDB7DEB7A1970FB6F894DEBF68
:100580000FBECDBF19A2423008F44AE08E010F5DC4
:100590001F4F842E912CB12CA12CA50194010E94F7
:1005A000F807E62FB901CA01EA30F4F4E05DD8019A
:1005B000EE938D01232B242B252B79F790E080E0FF
:1005C000109719F0CD010E94A502A1960FB6F894DC
:1005D000DEBF0FBECDBFDF91CF911F910F91BF90B6
:1005E000AF909F908F900895E95CE1CF90912701A3
:1005F000911102C068EB7BE021E030E03093010113
:1006000020930001FA01EE0FFF1FEE0FFF1F31973D
:1006100000F400F000F400F0000000003197D1F782
:100620008EBD0000CE99FECF8EB594E499BB20918B
:100630000001309101012130310569F461507109E7
:100640009AE09A95F1F7000000006115710579F7BD
:1006500091E09093270108951F920F920FB60F9289
:1006600011242F933F938F939F93AF93BF938091C8
:10067000A9019091AA01A091AB01B091AC01309178
:10068000A80120E4230F2D3728F023EC230F019637
:10069000A11DB11D2093A8018093A9019093AA01E7
:1006A000A093AB01B093AC018091AD019091AE01EC
:1006B000A091AF01B091B0010196A11DB11D809331
:1006C000AD019093AE01A093AF01B093B001BF9183
:1006D000AF919F918F913F912F910F900FBE0F90EF
:1006E0001F9018951F920F920FB60F9211242F93FF
:1006F0003F934F935F936F937F938F939F93AF93AA
:10070000BF93EF93FF93E0910401F09105010995E8
:10071000FF91EF91BF91AF919F918F917F916F91D9
:100720005F914F913F912F910F900FBE0F901F90AF
:1007300018951F920F920FB60F9211242F933F938B
:100740004F935F936F937F938F939F93AF93BF93D9
:10075000EF93FF93E0910201F09103010995FF915E
:10076000EF91BF91AF919F918F917F916F915F9129
:100770004F913F912F910F900FBE0F901F901895A2
:100780001F920F920FB60F9211242F933F934F9306
:100790005F936F937F938F939F93AF93BF93EF93E9
:1007A000FF9381EB91E00E941102FF91EF91BF91C5
:1007B000AF919F918F917F916F915F914F913F91F9
:1007C0002F910F900FBE0F901F9018951F920F92B0
:1007D0000FB60F9211242F938F939F93EF93FF9354
:1007E000E091C101F091C2018081E091C701F091D7
:1007F000C80182FD1BC090818091CA018F5F8F73F9
:100800002091CB01821741F0E091CA01F0E0EF5452
:10081000FE4F958F8093CA01FF91EF919F918F9129
:100820002F910F900FBE0F901F9018958081F4CFDD
:100830008091F20080618EBB80E88093F2009EB3CD
:100840009093F2008093610091E090936100909109
:10085000F2009F799EBB8093F2009EB39093F200CA
:100860009091F2009B7F9EBB8093F2009EB3909389
:10087000F2008093610010926100789484B58260E8
:1008800084BD84B5816084BD85B5826085BD85B534
:10089000816085BD80916E00816080936E001092B2
:1008A000810080918100826080938100809181002D
:1008B00081608093810080918000816080938000BE
:1008C0008091B10084608093B1008091B00081601C
:1008D0008093B0008091910082608093910080911C
:1008E000910081608093910080919000816080935D
:1008F000900080917A00846080937A0080917A00E1
:100900008D7F80937A0080917A008E7F80937A0029
:1009100080917A00806880937A001092C100E09103
:10092000C101F091C20182E08083E091BD01F091AC
:10093000BE011082E091BF01F091C00182E280838C
:100940001092C901E091C501F091C60186E0808353
:10095000E091C301F091C401808180618083E091C6
:10096000C301F091C401808188608083E091C3015C
:10097000F091C401808180688083E091C301F0918F
:10098000C40180818F7D808361E08AE00E94F7004E
:1009900062E082E00E94F70081E00E949A00CFB7F7
:1009A000F89480912601811126C0EAE9F0E0849153
:1009B000E6EBF0E09491E82FF0E0EE0FFF1FE8582F
:1009C000FF4FA591B491EC91E92319F481E00E94C5
:1009D0009A0061E08AE00E94F7008CB580618CBDCE
:1009E0008CB580648CBD61E08DE00E94F70061E011
:1009F0008BE00E94F700809126018F5F8093260193
:100A0000CFBF8FE78CBD1DBC62E08CE00E94F70079
:100A100083E891E090930301809302018091690043
:100A2000836080936900E89A40E3A42E41E0B42EED
:100A300050E0852E50E0952E81EB91E00E94F1016F
:100A400018161906BCF481EB91E00E94CF01823A9E
:100A5000910509F4A3C1C4F4803A910509F4A3C037
:100A60000CF0A6C08435910509F4A5C080EE90E095
:100A70000E94800281149104F9F20E94FD018823F2
:100A8000D9F20E940000D8CF803B910509F4AFC095
:100A90007CF5833A910551F765E070E080E090E0E5
:100AA0000E94510181EB91E00E94CF018C0181EB0A
:100AB00091E00E94CF01382E1092270188E2E82EA3
:100AC00081E0F82EE7019EE1C92ED12C81EB91E067
:100AD0000E94F101892B09F0EBC181E0C81AD1080D
:100AE00049F261E070E080E090E00E945101EECFB9
:100AF000813B910509F4B0C0823B910509F0B6CF66
:100B000080E00E949A00E5EDEA95F1F700004DE2E1
:100B100050E06CE271E081E80E94F6024DE250E0A4
:100B20006CE271E08CE50E94F6024DE250E06CE26E
:100B300071E080E00E94F6024DE250E06CE271E06C
:100B400080E00E94F602C82F682F81EB91E00E949E
:100B50003302C1118FCF4DE250E06CE271E080E0D2
:100B60000E94F602883009F085CF68E081EB91E0C1
:100B70000E94330208E211E0E8012EE1E22EF12C9E
:100B800081EB91E00E94F101892B09F0F1C0F1E0C5
:100B9000EF1AF10809F45CC061E070E080E090E0D9
:100BA0000E945101EDCF88E191E00E94A50262CF41
:100BB00089E090E05DCF88E191E00E94A5028FE19D
:100BC00091E00E94A5024AE060E070E0CB010E9443
:100BD000B20281E291E00E94A50240E169E070E08A
:100BE00080E090E00E94B20283E291E0DECF80E0FC
:100BF0000E949A0085ED8A95F1F700004DE250E0E1
:100C00006CE271E081E80E94F6024DE250E06CE295
:100C100071E08AE50E94F6024DE250E06CE271E07C
:100C200080E00E94F602682F81EB91E00E9433027F
:100C3000C2E1D0E04DE250E06CE271E080E00E9461
:100C4000F602682F81EB91E00E943302219791F721
:100C500081E00E949A000ECF65E070E080E090E0B5
:100C60000E94510181EB91E00E94CF01EC0180E0F4
:100C70000E949A0095ED9A95F1F700004DE250E040
:100C80006CE271E081E80E94F6024DE250E06CE215
:100C900071E08BE50E94F6024DE250E06CE271E0FB
:100CA00081E00E94F6024DE250E06CE271E080E0EB
:100CB0000E94F602182F682F81EB91E00E94330208
:100CC000153009F0D7CEDD27D695DC2FCC27D79568
:100CD000C7954DE250E06CE271E08C2F0E94F60265
:100CE0004DE250E06CE271E08D2F0E94F6024DE281
:100CF00050E06CE271E080E00E94F6024DE250E0CC
:100D00006CE271E084E00E94F6024DE250E06CE299
:100D100071E080E80E94F6024DE250E06CE271E082
:100D200080E00E94F602C82F682F81EB91E00E94BC
:100D30003302C03809F09ECEC0E8D0E04DE250E06A
:100D40006CE271E080E80E94F602682F81EB91E08E
:100D50000E943302219791F74DE250E06CE271E07E
:100D600080E00E94F60287E490E00E94800270CF4B
:100D700081EB91E00E94CF018993AC16BD0609F08A
:100D8000FFCE4DE250E06CE271E0F80181918F01FD
:100D90000E94F6020C171D07A1F7DECF65E070E098
:100DA00080E090E00E94510181EB91E00E94CF0130
:100DB000EC0181EB91E00E94CF01412CC429D82B9A
:100DC0001092270180E00E949A00F5EDFA95F1F764
:100DD000000046E450E064EF71E081E80E94F60212
:100DE0004DE250E064EF71E082E50E94F6024DE2D0
:100DF00050E064EF71E080E00E94F6024DE250E0C6
:100E000064EF71E080E00E94F6024DE250E064EF92
:100E100071E08C2F0E94F6024DE250E064EF71E029
:100E20008D2F0E94F6024DE250E060EF7AE080E004
:100E30000E94F60250E040E060EF7AE080E00E941D
:100E4000F60250E040E060EF7AE080E00E94F602B7
:100E500050E040E060EF7AE080E00E94F602C0E8F7
:100E6000D0E050E040E066E970E080E00E94F602E9
:100E7000682F81EB91E00E943302219791F750E0B7
:100E800040E064EF71E080E00E94F602682F81EBA1
:100E900091E00E94330250E040E064EF71E080E0B6
:100EA0000E94F602682F81EB91E00E943302D0CEBF
:100EB00081EB91E00E94CF01899391E0C83AD90774
:100EC00009F004CE612C0629132980E00E949A00C3
:100ED000E5EDEA95F1F700004DE250E06CE271E0DB
:100EE00081E80E94F6024DE250E06CE271E087E595
:100EF0000E94F6024DE250E06CE271E080E00E9458
:100F0000F6024DE250E06CE271E080E00E94F602F1
:100F10004DE250E06CE271E0802F0E94F6024DE25B
:100F200050E06CE271E0812F0E94F60250E040E058
:100F300066E970E0F70181917F010E94F602CE150B
:100F4000DF05A1F781EB91E00E94CF0150E040E086
:100F500068EC70E00E94F60250E040E068EC70E05F
:100F600080E00E94F60250E040E068EC70E080E033
:100F70000E94F60250E040E070E060E080E00E94F5
:100F8000F602682F81EB91E00E94330285ED94E137
:100F90000197F1F75DCEE1EBF1E01382128288EE6A
:100FA00093E0A0E0B0E084839583A683B7838AE0D2
:100FB00091E09183808385EC90E09587848784EC31
:100FC00090E09787868780EC90E0918B808B81EC16
:100FD00090E0938B828B82EC90E0958B848B86ECF7
:100FE00090E0978B868B118E128E138E148E08953F
:100FF000A1E21A2EAA1BBB1BFD010DC0AA1FBB1F1D
:10100000EE1FFF1FA217B307E407F50720F0A21B8E
:10101000B30BE40BF50B661F771F881F991F1A94FB
:1010200069F760957095809590959B01AC01BD0125
:10103000CF010895EE0FFF1F0590F491E02D099464
:04104000F894FFCF52
:101044000100920192010000000033029301C001EB
:101054008502F101CF01E3014D4344494E4F002085
:06106400002E000D0A0041
:00000001FF
