:100000000C942C010C94AB050C9480050C945505B4
:100010000C942A050C94FF040C94D4040C94A904A9
:100020000C947E040C945D010C945D010C945D01B4
:100030000C945D010C945D010C945D010C945D01C8
:100040000C945D010C945D010C945D010C945D01B8
:100050000C945D010C945D010C945D010C943404CE
:100060000C945D010C9400060C94D6050C945D0173
:100070000C945D010C945D010C945D010C945D0188
:100080000C945D010C945D010C945D010C945D0178
:100090000C945D010C945D010C945D010C945D0168
:1000A0000C945D010C945D010C945D010C945D0158
:1000B0000C945D010C945D010C945D010C945D0148
:1000C0000C945D010C945D010C945D010C945D0138
:1000D0000C945D010C945D010C945D010C945D0128
:1000E0000C945D010C94B7010C94DD020C94BB01DF
:1000F0000C9467030C94E1010C94AA010C94150371
:100100000C9490010C946F020C94D3010C94B101E7
:100110000C948B010C94C1010C94A6010C94C501A4
:100120000C94AE010C94CF020C94C9010C94DD0127
:100130000C94CF010C947E020C94BB020C94AC0284
:100140000C947F020C94A2010C94EB090C94D7013F
:1001500000002100240027002A002D003000330079
:1001600001010000040107010A010000220025002E
:1001700028002B002E003100340002010000050190
:1001800008010B0105050505070508080808020216
:1001900002020A0A08080404040401010101010121
:1001A00001010303030303030303040707070C0C04
:1001B0000C0C0C0C0C0C02020202060606060606CB
:1001C00006060B0B0B0B0B0B0B0B01021020200870
:1001D00008102040102040800201020108040201A2
:1001E0000102040810204080804020100804020111
:1001F000800402018040201008040201080402016A
:1002000001020408102040800102040810204080F0
:1002100000000A0B02090C0D0E0807030401000080
:1002200000000000000000000000000000000000CE
:10023000000000000000000000000000121110008B
:1002400000000000000000000000000000000000AE
:10025000000000000000EB0911241FBECFEFD1E227
:10026000DEBFCDBF00E00CBF12E0A0E0B2E0E8E8E6
:10027000F4E100E00BBF02C007900D92A233B1077A
:10028000D9F723E0A2E3B2E001C01D92AA35B2077C
:10029000E1F711E0CCE2D1E000E006C021970109CE
:1002A000802FFE010E943A0ACB32D10780E0080776
:1002B000A9F70E9436060C94420A0C940000382FCD
:1002C000E5E4F2E08491EFEFF1E02491E9EBF1E075
:1002D0009491992309F435C0882311F1815082311A
:1002E000F8F4E82FF0E08827E758FE4F8F4F0C9482
:1002F0003A0AAA01AE018B01A201A6019001B10147
:10030000B701BB01C101C501C901CF01D3019001F2
:10031000D701DD01E101809180008F77809380001B
:10032000E92FF0E0EE0FFF1FE659FE4FA591B491C3
:100330008FB7F894EC91311148C020952E232C935F
:100340008FBF0895809180008F7DE8CF80918000DD
:10035000877FE4CF84B58F7784BDE2CF84B58F7D6E
:10036000FBCF8091B0008F778093B000D9CF809180
:10037000B0008F7DF9CF809190008F7780939000AF
:10038000CFCF809190008F7DF9CF80919000877FB3
:10039000F5CF8091A0008F778093A000C1CF80918E
:1003A000A0008F7DF9CF8091A000877FF5CF80914D
:1003B00020018F7780932001B3CF809120018F7D22
:1003C000F9CF80912001877FF5CF2E2BB8CFCF9327
:1003D000DF9390E0FC01E653FE4F24918C579E4F33
:1003E000FC0184918823D1F090E0880F991FFC01D3
:1003F000E05BFE4FA591B491FC01E659FE4FC5911B
:10040000D491623071F49FB7F8943C91822F80951B
:1004100083238C93E8812E2B28839FBFDF91CF917C
:1004200008958FB7F894EC912E2B2C938FBFF6CFB5
:100430003FB7F8948091B9029091BA02A091BB02A3
:10044000B091BC0226B5A89B05C02F3F19F00196BC
:10045000A11DB11D3FBFBA2FA92F982F8827BC011E
:10046000CD01620F711D811D911D42E0660F771F46
:10047000881F991F4A95D1F708958F929F92AF9246
:10048000BF92CF92DF92EF92FF924B015C010E94EC
:1004900018026B017C010E9418026C197D098E09FB
:1004A0009F09683E734081059105A8F321E0821AF7
:1004B0009108A108B10888EEC80E83E0D81EE11C9F
:1004C000F11C81149104A104B10429F7FF90EF906D
:1004D000DF90CF90BF90AF909F908F900895209124
:1004E00000023091010281E090E0232B11F090E0B6
:1004F00080E0909301028093000208950895AF92E6
:10050000BF92CF92DF92EF92FF920F931F93CF9300
:10051000DF936C017B018B01040F151FEB015E0162
:10052000AE18BF08C017D10759F06991D601ED91F7
:10053000FC910190F081E02DC6011995892B79F786
:10054000C501DF91CF911F910F91FF90EF90DF9048
:10055000CF90BF90AF900895FC01538D448D252F0F
:1005600030E0842F90E0821B930B541710F0CF964D
:10057000089501970895FC01918D828D981761F07F
:10058000A28DAE0FBF2FB11D5D968C91928D9F5F96
:100590009F73928F90E008958FEF9FEF0895FC0175
:1005A000918D828D981731F0828DE80FF11D858D28
:1005B00090E008958FEF9FEF0895FC01918D228DBB
:1005C000892F90E0805C9F4F821B91098F73992740
:1005D00008958DEB92E00E94DD0221E0892B09F461
:1005E00020E0822F0895FC01A48DA80FB92FB11D22
:1005F000A35ABF4F2C91848D90E001968F73992759
:10060000848FA689B7892C93A089B1898C91837036
:1006100080648C93938D848D981306C00288F3892F
:10062000E02D80818F7D80830895EF92FF920F935C
:100630001F93CF93DF93EC0181E0888F9B8D8C8D8E
:1006400098131AC0E889F989808185FF15C09FB782
:10065000F894EE89FF896083E889F9898081837045
:10066000806480839FBF81E090E0DF91CF911F91F4
:100670000F91FF90EF900895F62E0B8D10E00F5F15
:100680001F4F0F731127E02E8C8D8E110CC00FB6EB
:1006900007FCFACFE889F989808185FFF5CFCE0183
:1006A0000E94F302F1CFEB8DEC0FFD2FF11DE35A09
:1006B000FF4FF0829FB7F8940B8FEA89FB89808106
:1006C0008062CFCF682F8DEB92E00C941503CF930F
:1006D000DF93EC01888D8823B9F0AA89BB89E8896A
:1006E000F9898C9185FD03C0808186FD0DC00FB610
:1006F00007FCF7CF8C9185FFF2CF808185FFEDCF8E
:10070000CE010E94F302E9CFDF91CF91089580E0FE
:1007100090E0892B29F00E94E90281110E940000DB
:1007200080E090E0892B49F080E090E0892B29F06F
:100730000E94000081110E94000080E090E0892B5F
:1007400049F080E090E0892B29F00E94000081119F
:100750000E94000080E090E0892B49F080E090E06A
:10076000892B29F00E94000081110C94000008954B
:10077000FC0101900020E9F73197AF01481B590BAC
:10078000BC018DEB92E00C947F028F929F92AF920E
:10079000BF920F931F93CF93DF93CDB7DEB7A1978F
:1007A0000FB6F894DEBF0FBECDBF19A2423008F4D9
:1007B0004AE08E010F5D1F4F842E912CB12CA12C8D
:1007C000A50194010E94180AE62FB901CA01EA3076
:1007D000F4F4E05DD801EE938D01232B242B252B1F
:1007E00079F790E080E0109719F0CD010E94B803EE
:1007F000A1960FB6F894DEBF0FBECDBFDF91CF91AB
:100800001F910F91BF90AF909F908F900895E95CDA
:10081000E1CF90913302911102C068EB7BE021E0BF
:1008200030E030930102209300024230510544F041
:10083000FA01EE0FFF1FEE0FFF1F35973197F1F70B
:100840008EBD00000DB407FEFDCF8EB520910002D5
:10085000309101022130310531F461507109B1F755
:1008600091E09093330208951F920F920FB60F926A
:1008700011242F933F938F939F93AF93BF938091B6
:10088000B5029091B602A091B702B091B802309132
:10089000B40223E0230F2D3758F50196A11DB11D99
:1008A0002093B4028093B5029093B602A093B7024E
:1008B000B093B8028091B9029091BA02A091BB02A4
:1008C000B091BC020196A11DB11D8093B902909315
:1008D000BA02A093BB02B093BC02BF91AF919F91AB
:1008E0008F913F912F910F900FBE0F901F901895F1
:1008F00026E8230F0296A11DB11DD2CF1F920F92A1
:100900000FB60F9211240BB60F922F933F934F9374
:100910005F936F937F938F939F93AF93BF93EF9367
:10092000FF93E0911002F09111021995FF91EF9160
:10093000BF91AF919F918F917F916F915F914F91F7
:100940003F912F910F900BBE0F900FBE0F901F90F5
:1009500018951F920F920FB60F9211240BB60F929B
:100960002F933F934F935F936F937F938F939F93B7
:10097000AF93BF93EF93FF93E0910E02F0910F02BC
:100980001995FF91EF91BF91AF919F918F917F91B9
:100990006F915F914F913F912F910F900BBE0F90F0
:1009A0000FBE0F901F9018951F920F920FB60F92C7
:1009B00011240BB60F922F933F934F935F936F9336
:1009C0007F938F939F93AF93BF93EF93FF93E091A8
:1009D0000402F09105021995FF91EF91BF91AF913B
:1009E0009F918F917F916F915F914F913F912F9147
:1009F0000F900BBE0F900FBE0F901F9018951F9277
:100A00000F920FB60F9211240BB60F922F933F93B4
:100A10004F935F936F937F938F939F93AF93BF9306
:100A2000EF93FF93E0910202F09103021995FF9179
:100A3000EF91BF91AF919F918F917F916F915F9156
:100A40004F913F912F910F900BBE0F900FBE0F90C3
:100A50001F9018951F920F920FB60F9211240BB68C
:100A60000F922F933F934F935F936F937F938F9347
:100A70009F93AF93BF93EF93FF93E0910C02F0919C
:100A80000D021995FF91EF91BF91AF919F918F91B9
:100A90007F916F915F914F913F912F910F900BBE7E
:100AA0000F900FBE0F901F9018951F920F920FB6C8
:100AB0000F9211240BB60F922F933F934F935F9396
:100AC0006F937F938F939F93AF93BF93EF93FF9316
:100AD000E0910A02F0910B021995FF91EF91BF91FD
:100AE000AF919F918F917F916F915F914F913F91C6
:100AF0002F910F900BBE0F900FBE0F901F90189567
:100B00001F920F920FB60F9211240BB60F922F93D4
:100B10003F934F935F936F937F938F939F93AF9385
:100B2000BF93EF93FF93E0910802F09109021995AA
:100B3000FF91EF91BF91AF919F918F917F916F91B5
:100B40005F914F913F912F910F900BBE0F900FBE71
:100B50000F901F9018951F920F920FB60F921124AD
:100B60000BB60F922F933F934F935F936F937F93A7
:100B70008F939F93AF93BF93EF93FF93E091060200
:100B8000F09107021995FF91EF91BF91AF919F915D
:100B90008F917F916F915F914F913F912F910F9026
:100BA0000BBE0F900FBE0F901F9018951F920F92C3
:100BB0000FB60F9211240BB60F922F933F934F93C2
:100BC0005F936F937F938F939F93AF93BF93EF93B5
:100BD000FF938DEB92E00E94F302FF91EF91BF91A2
:100BE000AF919F918F917F916F915F914F913F91C5
:100BF0002F910F900BBE0F900FBE0F901F90189566
:100C00001F920F920FB60F9211240BB60F922F93D3
:100C10008F939F93EF93FF93E091CD02F091CE02DB
:100C20008081E091D302F091D40282FD1DC09081B9
:100C30008091D6028F5F8F732091D702821741F087
:100C4000E091D602F0E0E354FD4F958F8093D602F9
:100C5000FF91EF919F918F912F910F900BBE0F906D
:100C60000FBE0F901F9018958081F2CFCF93DF9326
:100C70001F92CDB7DEB7789484B5826084BD84B509
:100C8000816084BD85B5826085BD85B5816085BD87
:100C900080916E00816080936E001092810080913F
:100CA00081008260809381008091810081608093C7
:100CB0008100809180008160809380008091B100EC
:100CC00084608093B1008091B00081608093B00017
:100CD0008091910082608093910080919100816069
:100CE000809391008091900081608093900080912A
:100CF000A10082608093A1008091A1008160809317
:100D0000A1008091A00081608093A00080912101CA
:100D10008260809321018091210181608093210173
:100D20008091200181608093200180917A0084600D
:100D300080937A0080917A00826080937A0080911B
:100D40007A00816080937A0080917A008068809335
:100D50007A001092C100E091CD02F091CE0282E0C3
:100D60008083E091C902F091CA021082E091CB0227
:100D7000F091CC0280E180831092D502E091D10203
:100D8000F091D20286E08083E091CF02F091D00210
:100D9000808180618083E091CF02F091D0028081D8
:100DA00088608083E091CF02F091D00280818068DA
:100DB0008083E091CF02F091D00280818F7D80838B
:100DC00061E085E30E94E70162E082E00E94E701C2
:100DD00081E00E945F018FB78983F894809132028D
:100DE000811126C0E9EBF1E08491EFEFF1E09491FD
:100DF000E82FF0E0EE0FFF1FE05BFE4FA591B491EE
:100E0000EC91E92319F481E00E945F0161E085E340
:100E10000E94E7018CB580618CBD8CB580648CBD6F
:100E200061E084E30E94E70161E083E30E94E7015F
:100E3000809132028F5F80933202E981EFBF8FE7AA
:100E40008CBD1DBC62E082E30E94E7018FE692E068
:100E5000909303028093020280916A0083608093E2
:100E60006A00EC9A5CE3452E52E0552E64EB662E48
:100E700062E0762E8DEB92E00E94DD0218161906D4
:100E8000BCF48DEB92E00E94BB02823A910509F41A
:100E9000A2C18CF4803A910509F49EC00CF0A1C067
:100EA0008435910509F4A0C080EE90E00E946203B1
:100EB0000E948703DFCF803B910509F4B1C07CF528
:100EC000833A910589F765E070E080E090E00E9448
:100ED0003D028DEB92E00E94BB027C018DEB92E023
:100EE0000E94BB0289831092330284E3C82E82E001
:100EF000D82E86019EE1A92EB12C8DEB92E00E94A6
:100F0000DD02892B09F0F2C1F1E0AF1AB10881F2DC
:100F100061E070E080E090E00E943D02EECF813B16
:100F2000910509F4B3C0823B910509F0BDCF80E083
:100F30000E945F018BE490E00197F1F74DE250E0F1
:100F40006CE271E081E80E9409044DE250E06CE23D
:100F500071E08CE50E9409044DE250E06CE271E022
:100F600080E00E9409044DE250E06CE271E080E014
:100F70000E940904182F682F8DEB92E00E94150340
:100F8000111196CF4DE250E06CE271E080E00E94DA
:100F90000904883009F08CCF68E08DEB92E00E9464
:100FA000150324E3E22E22E0F22E87013EE1C32E58
:100FB000D12C8DEB92E00E94DD02892B09F0F3C069
:100FC00081E0C81AD10809F45DC061E070E080E0FA
:100FD00090E00E943D02EDCF84E292E00E94B803CF
:100FE00067CF89E090E062CF84E292E00E94B8038C
:100FF0008BE292E00E94B8034AE060E070E0CB012F
:101000000E94C5038DE292E00E94B80340E169E0CE
:1010100070E080E090E00E94C5038FE292E0DECFB6
:1010200080E00E945F018BE490E00197F1F74DE2D0
:1010300050E06CE271E081E80E9409044DE250E06A
:101040006CE271E08AE50E9409044DE250E06CE236
:1010500071E080E00E940904682F8DEB92E00E940D
:10106000150302E110E04DE250E06CE271E080E037
:101070000E940904682F8DEB92E00E941503015035
:10108000110989F781E00E945F0112CF65E070E0ED
:1010900080E090E00E943D028DEB92E00E94BB0256
:1010A0008C0180E00E945F018BE490E00197F1F7F2
:1010B0004DE250E06CE271E081E80E9409044DE2EB
:1010C00050E06CE271E08BE50E9409044DE250E0D3
:1010D0006CE271E081E00E9409044DE250E06CE2B4
:1010E00071E080E00E940904F82E682F8DEB92E0F9
:1010F0000E941503F5E0FF12DBCE11271695102F85
:101100000027179507954DE250E06CE271E0802FC3
:101110000E9409044DE250E06CE271E0812F0E94D0
:1011200009044DE250E06CE271E080E00E940904A5
:101130004DE250E06CE271E084E00E9409044DE26F
:1011400050E06CE271E080E80E9409044DE250E05A
:101150006CE271E080E00E940904182F682F8DEB8B
:1011600092E00E941503103809F0A2CE00E810E0CA
:101170004DE250E06CE271E080E80E940904682FC3
:101180008DEB92E00E9415030150110989F74DE2A1
:1011900050E06CE271E080E00E94090487E490E096
:1011A0000E9462036FCF8DEB92E00E94BB02F801B8
:1011B00081938F014E165F0609F0FBCE4DE250E0A1
:1011C0006CE271E0F70181917F010E9409040E1524
:1011D0001F05A1F7DCCF65E070E080E090E00E94A1
:1011E0003D028DEB92E00E94BB028C018DEB92E000
:1011F0000E94BB02812C0829182B1092330280E038
:101200000E945F018BE490E00197F1F746E450E023
:1012100064EF71E081E80E9409044DE250E064EF60
:1012200071E082E50E9409044DE250E064EF71E054
:1012300080E00E9409044DE250E064EF71E080E03C
:101240000E9409044DE250E064EF71E0802F0E949B
:1012500009044DE250E064EF71E0812F0E9409041F
:101260004DE250E060EF7AE080E00E94090450E037
:1012700040E060EF7AE080E00E94090450E040E046
:1012800060EF7AE080E00E94090450E040E060EF07
:101290007AE080E00E94090400E810E050E040E0BD
:1012A00066E970E080E00E940904682F8DEB92E00F
:1012B0000E9415030150110989F750E040E064EFE6
:1012C00071E080E00E940904682F8DEB92E00E949B
:1012D000150350E040E064EF71E080E00E940904F3
:1012E000682F8DEB92E00E941503CCCE8DEB92E03F
:1012F0000E94BB02F80181938F016E167F0609F0F0
:10130000FCCD3980212CE228F32880E00E945F0187
:101310008BE490E00197F1F74DE250E06CE271E070
:1013200081E80E9409044DE250E06CE271E087E53B
:101330000E9409044DE250E06CE271E080E00E94FE
:1013400009044DE250E06CE271E080E00E94090483
:101350004DE250E06CE271E08E2D0E9409044DE2F6
:1013600050E06CE271E08F2D0E94090450E040E0F3
:1013700066E970E0F60181916F010E9409040C1585
:101380001D05A1F78DEB92E00E94BB0250E040E00A
:1013900068EC70E00E94090450E040E068EC70E006
:1013A00080E00E94090450E040E068EC70E080E0DA
:1013B0000E94090450E040E070E060E080E00E949C
:1013C0000904682F8DEB92E00E9415038BEC97E0E7
:1013D0000197F1F757CEEDEBF2E01382128288EE1F
:1013E00093E0A0E0B0E084839583A683B78386E191
:1013F00092E09183808385EC90E09587848784ECEC
:1014000090E09787868780EC90E0918B808B81ECD1
:1014100090E0938B828B82EC90E0958B848B86ECB2
:1014200090E0978B868B118E128E138E148E0895FA
:10143000A1E21A2EAA1BBB1BFD010DC0AA1FBB1FD8
:10144000EE1FFF1FA217B307E407F50720F0A21B4A
:10145000B30BE40BF50B661F771F881F991F1A94B7
:1014600069F760957095809590959B01AC01BD01E1
:10147000CF010895EE0FFF1F881F8BBF0790F691D5
:08148000E02D1994F894FFCF50
:1014880001007E027E027E027E027E027E027E02D3
:101498007E020000000015037F02AC026703DD0234
:1014A800BB02CF024D4344494E4F0020002E000D91
:0214B8000A0028
:00000001FF
