:100000000C9476000C941C040C94F5030C949E0044
:100010000C949E000C949E000C949E000C949E00E8
:100020000C949E000C949E000C949E000C949E00D8
:100030000C949E000C949E000C949E000C949E00C8
:100040000C94AF030C949E000C9469040C9443042C
:100050000C949E000C949E000C949E000C949E00A8
:100060000C949E000C949E000C9400000C940000D4
:100070000C9400000C9400000000000023002600F7
:1000800029002C0000000000240027002A002D0079
:1000900000000000250028002B002E0004040404AA
:1000A0000404040402020202020203030303030322
:1000B000050505050505050301020408102040801B
:1000C00001020408102001020408102002080104A3
:1000D0001040204000000008500201000003040707
:1000E000000000000000000000002D0811241FBEC9
:1000F000CFEFD8E0DEBFCDBF11E0A0E0B1E0E8E097
:10010000F1E102C005900D92A632B107D9F722E0C5
:10011000A6E2B1E001C01D92AD34B207E1F710E0F4
:10012000C6E7D0E004C02197FE010E947C08C537D5
:10013000D107C9F70E949B040C9482080C9400001C
:1001400081508B3088F5E82FF0E0E755FF4F0C9495
:100150007C08BE00C200B400BA00D400D400C500C0
:10016000CB00CF00D500D900809180008F7780939D
:1001700080000895809180008F7DF9CF84B58F77BE
:1001800084BD089584B58F7DFBCF8091B0008F77BB
:100190008093B00008958091B0008F7DF9CF809159
:1001A00090008F77809390000895809190008F7DCC
:1001B000F9CF80919000877FF5CF1F93CF93DF9386
:1001C000282F30E0F901EC52FF4F8491F901E854F7
:1001D000FF4FD491F901E456FF4FC491CC23A9F00D
:1001E000162F81110E94A000EC2FF0E0EE0FFF1FF0
:1001F000E057FF4FA591B4918FB7F894EC9111118E
:1002000008C0D095DE23DC938FBFDF91CF911F9183
:100210000895DE2BF8CFCF93DF93282F30E0F9013C
:10022000E854FF4F449124563F4FF9012491843004
:1002300019F483E08093A0002223D9F0822F90E06C
:10024000880F991FFC01EC57FF4FA591B491FC0159
:10025000E057FF4FC591D491623071F49FB7F89485
:100260002C91842F809582238C93E8814E2B488398
:100270009FBFDF91CF9108958FB7F894EC914E2BEB
:100280004C938FBFF6CF3FB7F8948091AC0190911B
:10029000AD01A091AE01B091AF0126B5A89B05C0FC
:1002A0002F3F19F00196A11DB11D3FBFBA2FA92FF5
:1002B000982F8827BC01CD01620F711D811D911DF2
:1002C000660F771F881F991F08958F929F92AF9294
:1002D000BF92CF92DF92EF92FF924B015C010E949E
:1002E00043016B017C010E9443016C197D098E0959
:1002F0009F09683E734081059105A8F321E0821AA9
:100300009108A108B10888EEC80E83E0D81EE11C50
:10031000F11C81149104A104B10429F7FF90EF901E
:10032000DF90CF90BF90AF909F908F9008952091D5
:1003300000013091010181E090E0232B11F090E069
:1003400080E0909301018093000108950895AF9299
:10035000BF92CF92DF92EF92FF920F931F93CF93B2
:10036000DF936C017B018B01040F151FEB015E0114
:10037000AE18BF08C017D10759F06991D601ED91A9
:10038000FC910190F081E02DC6010995892B79F748
:10039000C501DF91CF911F910F91FF90EF90DF90FA
:1003A000CF90BF90AF900895FC01538D448D252FC1
:1003B00030E0842F90E0821B930B541710F0CF96FF
:1003C000089501970895FC01918D828D981761F031
:1003D000A28DAE0FBF2FB11D5D968C91928D9F5F48
:1003E0009F73928F90E008958FEF9FEF0895FC0127
:1003F000918D828D981731F0828DE80FF11D858DDA
:1004000090E008958FEF9FEF0895FC01918D228D6C
:10041000892F90E0805C9F4F821B91098F739927F1
:10042000089580EB91E00E94050221E0892B09F4F8
:1004300020E0822F089580E090E0892B29F00E942F
:10044000110281110C9400000895FC01A48DA80FE5
:10045000B92FB11DA35ABF4F2C91848D90E0019606
:100460008F739927848FA689B7892C93A089B18926
:100470008C91837080648C93938D848D981306C0C7
:100480000288F389E02D80818F7D80830895EF922B
:10049000FF920F931F93CF93DF93EC0181E0888F3E
:1004A0009B8D8C8D98131AC0E889F989808185FF0E
:1004B00015C09FB7F894EE89FF896083E889F989B0
:1004C00080818370806480839FBF81E090E0DF91B2
:1004D000CF911F910F91FF90EF900895F62E0B8D05
:1004E00010E00F5F1F4F0F731127E02E8C8D8E11C0
:1004F0000CC00FB607FCFACFE889F989808185FF27
:10050000F5CFCE010E942502F1CFEB8DEC0FFD2F30
:10051000F11DE35AFF4FF0829FB7F8940B8FEA89E1
:10052000FB8980818062CFCF682F80EB91E00C94B3
:100530004702CF93DF93EC01888D8823B9F0AA8915
:10054000BB89E889F9898C9185FD03C0808186FD8E
:100550000DC00FB607FCF7CF8C9185FFF2CF8081DD
:1005600085FFEDCFCE010E942502E9CFDF91CF912B
:100570000895FC0101900020E9F73197AF01481B75
:10058000590BBC0180EB91E00C94A7018F929F92D4
:10059000AF92BF920F931F93CF93DF93CDB7DEB788
:1005A000A1970FB6F894DEBF0FBECDBF19A242309F
:1005B00008F44AE08E010F5D1F4F842E912CB12C60
:1005C000A12CA50194010E945A08E62FB901CA0185
:1005D000EA30F4F4E05DD801EE938D01232B242B57
:1005E000252B79F790E080E0109719F0CD010E945B
:1005F000B902A1960FB6F894DEBF0FBECDBFDF9152
:10060000CF911F910F91BF90AF909F908F900895C1
:10061000E95CE1CF5F926F927F928F929F92AF924F
:10062000BF92CF92DF92EF92FF920F931F93CF93DF
:10063000DF938B01EA0190912601911102C008EB32
:100640001BE021E030E03093010120930001712C88
:10065000209789F0EE01CC0FDD1FCC0FDD1F219715
:1006600000F400F000F400F0000000002197D1F742
:10067000712CD0E0C0E0E82EF12C90EEC92E90E075
:10068000D92E24ECA22E20E0B22E38EA832E30E0C0
:10069000932EB7010C2E02C0759567950A94E2F768
:1006A00061708BE00E94DD0060E08DE00E94DD0063
:1006B00085E18A95F1F70000F6018491F5016490D7
:1006C000F4015490552009F448C081110E94A00003
:1006D000E52DF0E0EE0FFF1FE858FF4FA591B49114
:1006E0008C91682231E009F430E0832F0C2E01C098
:1006F000880F0A94EAF7782A61E08DE00E94DD0015
:1007000025E12A95F1F700002196C830D10509F0BE
:10071000C0CF8091000190910101019769F40150CF
:1007200011098AE08A95F1F7000000000115110512
:1007300081F781E080932601872DDF91CF911F9172
:100740000F91FF90EF90DF90CF90BF90AF909F9070
:100750008F907F906F905F90089580E0C7CF1F9239
:100760000F920FB60F9211242F933F938F939F9365
:10077000AF93BF938091A8019091A901A091AA0184
:10078000B091AB013091A70120E4230F2D3728F061
:1007900023EC230F0196A11DB11D2093A701809387
:1007A000A8019093A901A093AA01B093AB018091F5
:1007B000AC019091AD01A091AE01B091AF01019655
:1007C000A11DB11D8093AC019093AD01A093AE012A
:1007D000B093AF01BF91AF919F918F913F912F91B6
:1007E0000F900FBE0F901F9018951F920F920FB68B
:1007F0000F9211242F933F934F935F936F937F93A7
:100800008F939F93AF93BF93EF93FF93E091040176
:10081000F09105010995FF91EF91BF91AF919F91E3
:100820008F917F916F915F914F913F912F910F9099
:100830000FBE0F901F9018951F920F920FB60F9238
:1008400011242F933F934F935F936F937F938F93D5
:100850009F93AF93BF93EF93FF93E0910201F091C9
:1008600003010995FF91EF91BF91AF919F918F91F6
:100870007F916F915F914F913F912F910F900FBE9C
:100880000F901F9018951F920F920FB60F92112480
:100890002F933F934F935F936F937F938F939F9388
:1008A000AF93BF93EF93FF9380EB91E00E942502FB
:1008B000FF91EF91BF91AF919F918F917F916F9138
:1008C0005F914F913F912F910F900FBE0F901F900E
:1008D00018951F920F920FB60F9211242F938F939A
:1008E0009F93EF93FF93E091C001F091C10180814C
:1008F000E091C601F091C70182FD1BC090818091FB
:10090000C9018F5F8F732091CA01821741F0E09176
:10091000C901F0E0E055FE4F958F8093C901FF912A
:10092000EF919F918F912F910F900FBE0F901F907D
:1009300018958081F4CF8091F20080618EBB80E8B1
:100940008093F2009EB39093F2008093610091E057
:10095000909361009091F2009F799EBB8093F2008A
:100960009EB39093F2009091F2009B7F9EBB809388
:10097000F2009EB39093F2008093610010926100A8
:10098000789484B5826084BD84B5816084BD85B56A
:10099000826085BD85B5816085BD80916E00816076
:1009A00080936E001092810080918100826080931C
:1009B000810080918100816080938100809180001E
:1009C0008160809380008091B10084608093B10049
:1009D0008091B00081608093B0008091910082602E
:1009E000809391008091910081608093910080912B
:1009F000900081608093900080917A008460809361
:100A00007A0080917A008D7F80937A0080917A00BD
:100A10008E7F80937A0080917A00806880937A003C
:100A20001092C100E091C001F091C10182E0808389
:100A3000E091BC01F091BD011082E091BE01F09106
:100A4000BF0182E280831092C801E091C401F0915D
:100A5000C50186E08083E091C201F091C3018081ED
:100A600080618083E091C201F091C3018081886040
:100A70008083E091C201F091C3018081806880830E
:100A8000E091C201F091C30180818F7D808361E09C
:100A90008AE00E940B0162E082E00E940B0161E0AB
:100AA0008AE00E94DD0061E08DE00E940B0161E0C0
:100AB0008BE00E940B0161E08DE00E94DD0061E0AF
:100AC0008BE00E94DD0062E08CE00E940B0187E970
:100AD00091E090930301809302018091690083600B
:100AE00080936900E89A40E0A42E40E0B42E80EBA9
:100AF00091E00E94050218161906BCF480EB91E003
:100B00000E94E301823A910509F4A8C1C4F4803A35
:100B1000910509F4A4C00CF0A7C08435910509F42F
:100B2000A6C080EE90E00E949402A114B104F9F2F4
:100B30000E9411028823D9F20E940000D8CF803B86
:100B4000910509F4B0C07CF5833A910551F765E051
:100B500070E080E090E00E94650180EB91E00E94EF
:100B6000E3018C0180EB91E00E94E301582E10928A
:100B7000260187E2E82E81E0F82EE7019EE1C92EEA
:100B8000D12C80EB91E00E940502892B09F0F1C184
:100B900081E0C81AD10849F261E070E080E090E09D
:100BA0000E946501EECF813B910509F4B3C0823B01
:100BB000910509F0B6CF60E08AE00E94DD00E5ED26
:100BC000EA95F1F700004DE250E06CE271E081E857
:100BD0000E940A034DE250E06CE271E08CE50E9455
:100BE0000A034DE250E06CE271E080E00E940A03EB
:100BF0004DE250E06CE271E080E00E940A03C82FF1
:100C0000682F80EB91E00E944702C1118ECF4DE228
:100C100050E06CE271E080E00E940A03883009F045
:100C200084CF68E080EB91E00E94470207E211E088
:100C3000E8012EE1E22EF12C80EB91E00E9405020A
:100C4000892B09F0F4C0F1E0EF1AF10809F45DC056
:100C500061E070E080E090E00E946501EDCF88E106
:100C600091E00E94B90261CF89E090E05CCF88E119
:100C700091E00E94B9028FE191E00E94B9024AE03E
:100C800060E070E0CB010E94C60281E291E00E9428
:100C9000B90240E169E070E080E090E00E94C602A5
:100CA00083E291E0DECF60E08AE00E94DD0085ED26
:100CB0008A95F1F700004DE250E06CE271E081E8C6
:100CC0000E940A034DE250E06CE271E08AE50E9466
:100CD0000A034DE250E06CE271E080E00E940A03FA
:100CE000682F80EB91E00E944702C2E1D0E04DE224
:100CF00050E06CE271E080E00E940A03682F80EB14
:100D000091E00E944702219791F761E08AE00E94FA
:100D1000DD000BCF65E070E080E090E00E946501AF
:100D200080EB91E00E94E301EC0160E08AE00E9428
:100D3000DD0095ED9A95F1F700004DE250E06CE290
:100D400071E081E80E940A034DE250E06CE271E03C
:100D50008BE50E940A034DE250E06CE271E081E015
:100D60000E940A034DE250E06CE271E080E00E94D4
:100D70000A03182F682F80EB91E00E94470215307C
:100D800009F0D3CEDD27D695DC2FCC27D795C79594
:100D90004DE250E06CE271E08C2F0E940A034DE2BC
:100DA00050E06CE271E08D2F0E940A034DE250E0AA
:100DB0006CE271E080E00E940A034DE250E06CE2D8
:100DC00071E084E00E940A034DE250E06CE271E0C1
:100DD00080E80E940A034DE250E06CE271E080E09E
:100DE0000E940A03C82F682F80EB91E00E944702FF
:100DF000C03809F09ACEC0E8D0E04DE250E06CE295
:100E000071E080E80E940A03682F80EB91E00E9465
:100E10004702219791F74DE250E06CE271E080E0EB
:100E20000E940A0387E490E00E9494026ECF80EB58
:100E300091E00E94E301899381E0CF32D80709F065
:100E4000FBCE4DE250E06CE271E0F80181918F0140
:100E50000E940A03C017D107A1F7DDCF65E070E05B
:100E600080E090E00E94650180EB91E00E94E30148
:100E7000EC0180EB91E00E94E301612CC629D82BA4
:100E80001092260160E08AE00E94DD00F5EDFA95FF
:100E9000F1F7000046E450E064EF71E081E80E9461
:100EA0000A034DE250E064EF71E082E50E940A031C
:100EB0004DE250E064EF71E080E00E940A034DE2F1
:100EC00050E064EF71E080E00E940A034DE250E0E0
:100ED00064EF71E08C2F0E940A034DE250E064EF52
:100EE00071E08D2F0E940A034DE250E060EF7AE03E
:100EF00080E00E940A0350E040E060EF7AE080E08A
:100F00000E940A0350E040E060EF7AE080E00E9437
:100F10000A0350E040E060EF7AE080E00E940A03BC
:100F2000C0E8D0E050E040E066E970E080E00E9478
:100F30000A03682F80EB91E00E944702219791F706
:100F400050E040E064EF71E080E00E940A03682F07
:100F500080EB91E00E94470250E040E064EF71E0D6
:100F600080E00E940A03682F80EB91E00E94470214
:100F7000CCCE80EB91E00E94E301899391E0C73AE7
:100F8000D90709F0FECD812C0829152960E08AE0F7
:100F90000E94DD00E5EDEA95F1F700004DE250E03A
:100FA0006CE271E081E80E940A034DE250E06CE2DD
:100FB00071E087E50E940A034DE250E06CE271E0C7
:100FC00080E00E940A034DE250E06CE271E080E0B4
:100FD0000E940A034DE250E06CE271E0802F0E9413
:100FE0000A034DE250E06CE271E0812F0E940A0397
:100FF00050E040E066E970E0F70181917F010E94D6
:101000000A03CE15DF05A1F780EB91E00E94E30112
:1010100050E040E068EC70E00E940A0350E040E0DD
:1010200068EC70E080E00E940A0350E040E068EC69
:1010300070E080E00E940A0350E040E070E060E071
:1010400080E00E940A03682F80EB91E00E94470233
:1010500085ED94E10197F1F758CEE0EBF1E01382D2
:10106000128288EE93E0A0E0B0E084839583A683AB
:10107000B7838AE091E09183808385EC90E0958747
:10108000848784EC90E09787868780EC90E0918B52
:10109000808B81EC90E0938B828B82EC90E0958B3F
:1010A000848B86EC90E0978B868B118E128E138E3C
:1010B000148E0895A1E21A2EAA1BBB1BFD010DC0C0
:1010C000AA1FBB1FEE1FFF1FA217B307E407F507F8
:1010D00020F0A21BB30BE40BF50B661F771F881FD4
:1010E000991F1A9469F760957095809590959B016A
:1010F000AC01BD01CF010895EE0FFF1F0590F491E3
:08110000E02D0994F894FFCFE3
:101108000100A601A601000000004702A701D401C2
:1011180099020502E301F7014D4344494E4F00206F
:06112800002E000D0A007C
:00000001FF
