:100000000C945D000C9410030C94E9020C94850090
:100010000C9485000C9485000C9485000C9485004C
:100020000C9485000C9485000C9485000C9485003C
:100030000C9485000C9485000C9485000C9485002C
:100040000C949F020C9485000C945D030C94370370
:100050000C9485000C9485000C9485000C9485000C
:100060000C9485000C9485000000000024002700FB
:100070002A0000000000250028002B0004040404CE
:100080000404040402020202020203030303030342
:10009000010204081020408001020408102001021F
:1000A00004081020000000080002010000030407FB
:1000B0000000000000000000AD0511241FBECFEFBE
:1000C000D8E0DEBFCDBF11E0A0E0B1E0E4ECFBE0A2
:1000D00002C005900D92A032B107D9F722E0A0E24C
:1000E000B1E001C01D92A834B207E1F710E0CDE500
:1000F000D0E004C02197FE010E94DA05CC35D1077B
:10010000C9F70E948F030C94E0050C940000EEEAFE
:10011000F0E02491EAE9F0E09491E6E8F0E0E4917F
:10012000EE23C9F0222339F0233001F1A8F4213065
:1001300019F1223029F1F0E0EE0FFF1FEE58FF4FCA
:10014000A591B4912FB7F894EC91811126C09095A8
:100150009E239C932FBF08952730A9F02830C9F023
:10016000243049F7209180002F7D03C0209180002A
:100170002F7720938000DFCF24B52F7724BDDBCFEE
:1001800024B52F7DFBCF2091B0002F772093B000B6
:10019000D2CF2091B0002F7DF9CF9E2BDACFCF9315
:1001A000DF9390E0FC01E057FF4F249184589F4F6C
:1001B000FC0184918823D1F090E0880F991FFC0105
:1001C000E859FF4FA591B491FC01EE58FF4FC5913E
:1001D000D491623071F49FB7F8943C91822F80954E
:1001E00083238C93E8812E2B28839FBFDF91CF91AF
:1001F00008958FB7F894EC912E2B2C938FBFF6CFE8
:100200003FB7F8948091440290914502A091460234
:10021000B091470226B5A89B05C02F3F19F0019663
:10022000A11DB11D3FBFBA2FA92F982F8827BC0150
:10023000CD01620F711D811D911D42E0660F771F78
:10024000881F991F4A95D1F708958F929F92AF9278
:10025000BF92CF92DF92EF92FF924B015C010E941E
:1002600000016B017C010E9400016C197D098E095F
:100270009F09683E734081059105A8F321E0821A29
:100280009108A108B10888EEC80E83E0D81EE11CD1
:10029000F11C81149104A104B10429F7FF90EF909F
:1002A000DF90CF90BF90AF909F908F900895209156
:1002B00000013091010181E090E0232B11F090E0EA
:1002C00080E0909301018093000108950895AF921A
:1002D000BF92CF92DF92EF92FF920F931F93CF9333
:1002E000DF936C017B018B01040F151FEB015E0195
:1002F000AE18BF08C017D10759F06991D601ED912A
:10030000FC910190F081E02DC6010995892B79F7C8
:10031000C501DF91CF911F910F91FF90EF90DF907A
:10032000CF90BF90AF900895FC01538D448D252F41
:1003300030E0842F90E0821B930B541710F0CF967F
:10034000089501970895FC01918D828D981761F0B1
:10035000A28DAE0FBF2FB11D5D968C91928D9F5FC8
:100360009F73928F90E008958FEF9FEF0895FC01A7
:10037000918D828D981731F0828DE80FF11D858D5A
:1003800090E008958FEF9FEF0895FC01918D228DED
:10039000892F90E0805C9F4F821B91098F73992772
:1003A000089582EA91E00E94C50121E0892B09F4B9
:1003B00020E0822F089580E090E0892B29F00E94B0
:1003C000D10181110C9400000895FC01A48DA80FA7
:1003D000B92FB11DA35ABF4F2C91848D90E0019687
:1003E0008F739927848FA689B7892C93A089B189A7
:1003F0008C91837080648C93938D848D981306C048
:100400000288F389E02D80818F7D80830895EF92AB
:10041000FF920F931F93CF93DF93EC0181E0888FBE
:100420009B8D8C8D98131AC0E889F989808185FF8E
:1004300015C09FB7F894EE89FF896083E889F98930
:1004400080818370806480839FBF81E090E0DF9132
:10045000CF911F910F91FF90EF900895F62E0B8D85
:1004600010E00F5F1F4F0F731127E02E8C8D8E1140
:100470000CC00FB607FCFACFE889F989808185FFA7
:10048000F5CFCE010E94E501F1CFEB8DEC0FFD2FF2
:10049000F11DE35AFF4FF0829FB7F8940B8FEA8962
:1004A000FB8980818062CFCFCF93DF93EC01888D71
:1004B0008823B9F0AA89BB89E889F9898C9185FDDF
:1004C00003C0808186FD0DC00FB607FCF7CF8C916D
:1004D00085FFF2CF808185FFEDCFCE010E94E5013F
:1004E000E9CFDF91CF9108959091A101911102C0C0
:1004F00068EB7BE021E030E03093010120930001C4
:100500004230510544F0FA01EE0FFF1FEE0FFF1FBE
:1005100035973197F1F78EBD00000DB407FEFDCF82
:100520008EB520910001309101012130310531F467
:1005300061507109B1F791E09093A10108951F9264
:100540000F920FB60F9211242F933F938F939F9387
:10055000AF93BF938091400290914102A0914202DB
:10056000B091430230913F0223E0230F2D3758F51D
:100570000196A11DB11D20933F02809340029093EC
:100580004102A0934202B0934302809144029091B1
:100590004502A0914602B09147020196A11DB11DEE
:1005A0008093440290934502A0934602B093470281
:1005B000BF91AF919F918F913F912F910F900FBE5F
:1005C0000F901F90189526E8230F0296A11DB11DCC
:1005D000D2CF1F920F920FB60F9211242F933F93F9
:1005E0004F935F936F937F938F939F93AF93BF933B
:1005F000EF93FF93E0910401F09105010995FF91BC
:10060000EF91BF91AF919F918F917F916F915F918A
:100610004F913F912F910F900FBE0F901F90189503
:100620001F920F920FB60F9211242F933F934F9367
:100630005F936F937F938F939F93AF93BF93EF934A
:10064000FF93E0910201F09103010995FF91EF9171
:10065000BF91AF919F918F917F916F915F914F91DA
:100660003F912F910F900FBE0F901F9018951F92E2
:100670000F920FB60F9211242F933F934F935F93D6
:100680006F937F938F939F93AF93BF93EF93FF935A
:1006900082EA91E00E94E501FF91EF91BF91AF9155
:1006A0009F918F917F916F915F914F913F912F918A
:1006B0000F900FBE0F901F9018951F920F920FB6BC
:1006C0000F9211242F938F939F93EF93FF93E091B9
:1006D000B201F091B3018081E091B801F091B901CC
:1006E00082FD1BC090818091BB018F5F8F73209131
:1006F000BC01821741F0E091BB01F0E0EE55FE4FE6
:10070000958F8093BB01FF91EF919F918F912F91D6
:100710000F900FBE0F901F9018958081F4CF7894A2
:1007200084B5826084BD84B5816084BD85B58260F6
:1007300085BD85B5816085BD80916E0081608093A7
:100740006E00109281008091810082608093810010
:100750008091810081608093810080918000816020
:10076000809380008091B10084608093B10080917B
:10077000B00081608093B00080917A0084608093A3
:100780007A0080917A00826080937A0080917A006A
:10079000816080937A0080917A00806880937A00EB
:1007A0001092C100E091B201F091B30182E0808328
:1007B000E091AE01F091AF011082E091B001F091B3
:1007C000B10180E180831092BA01E091B601F0910D
:1007D000B70186E08083E091B401F091B50180819A
:1007E00080618083E091B401F091B50180818860DF
:1007F0008083E091B401F091B501808180688083AD
:10080000E091B401F091B50180818F7D808361E03A
:100810008AE00E94CF0062E082E00E94CF0081E087
:100820000E948700CFB7F89480912001811126C0E3
:10083000E6E8F0E08491EAE9F0E09491E82FF0E056
:10084000EE0FFF1FE859FF4FA591B491EC91E923FA
:1008500019F481E00E94870061E08AE00E94CF00E5
:100860008CB580618CBD8CB580648CBD61E08DE001
:100870000E94CF0061E08BE00E94CF0080912001B8
:100880008F5F80932001CFBF8FE78CBD1DBC62E0DE
:100890008CE00E94CF0087E591E090930301809364
:1008A000020180916900836080936900E89A9BE46B
:1008B000C92ED12C20E0A22E20E0B22E82EA91E0B7
:1008C0000E94C501181619060CF07EC082EA91E05C
:1008D0000E94A301813A910509F482C054F4803A40
:1008E000910509F469C060EE82EA91E00E94070276
:1008F0006BC0823A910509F475C0833A910599F766
:1009000065E070E080E090E00E94250182EA91E0DD
:100910000E94A301EC0182EA91E00E94A301812CD4
:10092000C829D82B1092A10180E00E948700C6013F
:100930000197F1F74DE250E06CE271E081E80E942E
:1009400074024DE250E06CE271E087E50E947402AF
:100950004DE250E06CE271E080E00E9474024DE2F2
:1009600050E06CE271E080E00E9474024DE250E0E1
:100970006CE271E08C2F0E9474024DE250E06CE258
:1009800071E08D2F0E94740201E211E0E8018EE116
:10099000E82EF12C82EA91E00E94C501892B09F032
:1009A000ADC081E0E81AF10879F061E070E080E024
:1009B00090E00E942501EECF46E050E068E171E052
:1009C00082EA91E00E946701A114B10409F476CF94
:1009D0000E94D101882309F471CF0E9400006ECFDC
:1009E00066E082CF65E070E080E090E00E94250143
:1009F00082EA91E00E94A301EC0182EA91E00E9468
:100A0000A301612CC629D82B1092A10180E00E947D
:100A10008700C6010197F1F746E450E064EF71E00A
:100A200081E80E9474024DE250E064EF71E082E5DB
:100A30000E9474024DE250E064EF71E080E00E9499
:100A400074024DE250E064EF71E080E00E947402B5
:100A50004DE250E064EF71E08C2F0E9474024DE291
:100A600050E064EF71E08D2F0E9474024DE250E07F
:100A700060EF7AE080E00E94740250E040E060EFB6
:100A80007AE080E00E94740250E040E060EF7AE09B
:100A900080E00E94740250E040E060EF7AE080E085
:100AA0000E947402C0E8D0E050E040E066E970E0E7
:100AB00080E00E947402682F82EA91E00E9407029F
:100AC000219791F750E040E064EF71E080E00E94F0
:100AD0007402682F82EA91E00E94070250E040E031
:100AE00070E060E080E00E947402682F82EA91E08A
:100AF0000E94070281E00E94870066CF82EA91E0AF
:100B00000E94A3018993E1E0C13ADE0709F042CFD8
:100B100050E040E066E970E0F80181918F010E94A9
:100B20007402C017D107A1F782EA91E00E94A301E5
:100B300050E040E068EC70E00E94740250E040E059
:100B400068EC70E080E00E94740250E040E068ECE5
:100B500070E080E00E947402C1CFE2EAF1E013820B
:100B6000128288EE93E0A0E0B0E084839583A683B0
:100B7000B7838AE091E09183808385EC90E095874C
:100B8000848784EC90E09787868780EC90E0918B57
:100B9000808B81EC90E0938B828B82EC90E0958B44
:100BA000848B86EC90E0978B868B118E128E138E41
:100BB000148E0895EE0FFF1F0590F491E02D099417
:040BC000F894FFCFD7
:100BC400010066016601000000000702670194014C
:100BD4005402C501A301B7014D4344494E4F0000DF
:00000001FF
