:100000000C945D000C9466030C943F030C948500E3
:100010000C9485000C9485000C9485000C9485004C
:100020000C9485000C9485000C9485000C9485003C
:100030000C9485000C9485000C9485000C9485002C
:100040000C94F5020C9485000C94B3030C948D036E
:100050000C9485000C9485000C9485000C9485000C
:100060000C9485000C9485000000000024002700FB
:100070002A0000000000250028002B0004040404CE
:100080000404040402020202020203030303030342
:10009000010204081020408001020408102001021F
:1000A00004081020000000080002010000030407FB
:1000B0000000000000000000750711241FBECFEFF4
:1000C000D8E0DEBFCDBF11E0A0E0B1E0E8E9FFE09D
:1000D00002C005900D92A632B107D9F722E0A6E240
:1000E000B1E001C01D92AE34B207E1F710E0CDE5FA
:1000F000D0E004C02197FE010E94C407CC35D1078F
:10010000C9F70E94E5030C94CA070C940000EEEABC
:10011000F0E02491EAE9F0E09491E6E8F0E0E4917F
:10012000EE23C9F0222339F0233001F1A8F4213065
:1001300019F1223029F1F0E0EE0FFF1FEE58FF4FCA
:10014000A591B4912FB7F894EC91811126C09095A8
:100150009E239C932FBF08952730A9F02830C9F023
:10016000243049F7209180002F7D03C0209180002A
:100170002F7720938000DFCF24B52F7724BDDBCFEE
:1001800024B52F7DFBCF2091B0002F772093B000B6
:10019000D2CF2091B0002F7DF9CF9E2BDACFCF9315
:1001A000DF9390E0FC01E057FF4F249184589F4F6C
:1001B000FC0184918823D1F090E0880F991FFC0105
:1001C000E859FF4FA591B491FC01EE58FF4FC5913E
:1001D000D491623071F49FB7F8943C91822F80954E
:1001E00083238C93E8812E2B28839FBFDF91CF91AF
:1001F00008958FB7F894EC912E2B2C938FBFF6CFE8
:100200003FB7F8948091AD019091AE01A091AF01FC
:10021000B091B00126B5A89B05C02F3F19F00196FB
:10022000A11DB11D3FBFBA2FA92F982F8827BC0150
:10023000CD01620F711D811D911D42E0660F771F78
:10024000881F991F4A95D1F708958F929F92AF9278
:10025000BF92CF92DF92EF92FF924B015C010E941E
:1002600000016B017C010E9400016C197D098E095F
:100270009F09683E734081059105A8F321E0821A29
:100280009108A108B10888EEC80E83E0D81EE11CD1
:10029000F11C81149104A104B10429F7FF90EF909F
:1002A000DF90CF90BF90AF909F908F900895209156
:1002B00000013091010181E090E0232B11F090E0EA
:1002C00080E0909301018093000108950895AF921A
:1002D000BF92CF92DF92EF92FF920F931F93CF9333
:1002E000DF936C017B018B01040F151FEB015E0195
:1002F000AE18BF08C017D10759F06991D601ED912A
:10030000FC910190F081E02DC6010995892B79F7C8
:10031000C501DF91CF911F910F91FF90EF90DF907A
:10032000CF90BF90AF900895FC01538D448D252F41
:1003300030E0842F90E0821B930B541710F0CF967F
:10034000089501970895FC01918D828D981761F0B1
:10035000A28DAE0FBF2FB11D5D968C91928D9F5FC8
:100360009F73928F90E008958FEF9FEF0895FC01A7
:10037000918D828D981731F0828DE80FF11D858D5A
:1003800090E008958FEF9FEF0895FC01918D228DED
:10039000892F90E0805C9F4F821B91098F73992772
:1003A000089581EB91E00E94C50121E0892B09F4B9
:1003B00020E0822F089580E090E0892B29F00E94B0
:1003C000D10181110C9400000895FC01A48DA80FA7
:1003D000B92FB11DA35ABF4F2C91848D90E0019687
:1003E0008F739927848FA689B7892C93A089B189A7
:1003F0008C91837080648C93938D848D981306C048
:100400000288F389E02D80818F7D80830895EF92AB
:10041000FF920F931F93CF93DF93EC0181E0888FBE
:100420009B8D8C8D98131AC0E889F989808185FF8E
:1004300015C09FB7F894EE89FF896083E889F98930
:1004400080818370806480839FBF81E090E0DF9132
:10045000CF911F910F91FF90EF900895F62E0B8D85
:1004600010E00F5F1F4F0F731127E02E8C8D8E1140
:100470000CC00FB607FCFACFE889F989808185FFA7
:10048000F5CFCE010E94E501F1CFEB8DEC0FFD2FF2
:10049000F11DE35AFF4FF0829FB7F8940B8FEA8962
:1004A000FB8980818062CFCF682F81EB91E00C9433
:1004B0000702CF93DF93EC01888D8823B9F0AA89D6
:1004C000BB89E889F9898C9185FD03C0808186FD0F
:1004D0000DC00FB607FCF7CF8C9185FFF2CF80815E
:1004E00085FFEDCFCE010E94E501E9CFDF91CF91ED
:1004F0000895FC0101900020E9F73197AF01481BF6
:10050000590BBC0181EB91E00C9467018F929F9293
:10051000AF92BF920F931F93CF93DF93CDB7DEB708
:10052000A1970FB6F894DEBF0FBECDBF19A242301F
:1005300008F44AE08E010F5D1F4F842E912CB12CE0
:10054000A12CA50194010E94A207E62FB901CA01BE
:10055000EA30F4F4E05DD801EE938D01232B242BD7
:10056000252B79F790E080E0109719F0CD010E94DB
:100570007902A1960FB6F894DEBF0FBECDBFDF9112
:10058000CF911F910F91BF90AF909F908F90089542
:10059000E95CE1CF90912701911102C068EB7BE00B
:1005A00021E030E0309301012093000142305105F9
:1005B00044F0FA01EE0FFF1FEE0FFF1F3597319742
:1005C000F1F78EBD00000DB407FEFDCF8EB5209172
:1005D0000001309101012130310531F46150710980
:1005E000B1F791E09093270108951F920F920FB6F3
:1005F0000F9211242F933F938F939F93AF93BF93A9
:100600008091A9019091AA01A091AB01B091AC0198
:100610003091A80123E0230F2D3758F50196A11D35
:10062000B11D2093A8018093A9019093AA01A093E2
:10063000AB01B093AC018091AD019091AE01A0915E
:10064000AF01B091B0010196A11DB11D8093AD0124
:100650009093AE01A093AF01B093B001BF91AF9161
:100660009F918F913F912F910F900FBE0F901F90F0
:10067000189526E8230F0296A11DB11DD2CF1F9217
:100680000F920FB60F9211242F933F934F935F93C6
:100690006F937F938F939F93AF93BF93EF93FF934A
:1006A000E0910401F09105010995FF91EF91BF914F
:1006B000AF919F918F917F916F915F914F913F91FA
:1006C0002F910F900FBE0F901F9018951F920F92B1
:1006D0000FB60F9211242F933F934F935F936F9315
:1006E0007F938F939F93AF93BF93EF93FF93E0918B
:1006F0000201F09103010995FF91EF91BF91AF9134
:100700009F918F917F916F915F914F913F912F9129
:100710000F900FBE0F901F9018951F920F920FB65B
:100720000F9211242F933F934F935F936F937F9377
:100730008F939F93AF93BF93EF93FF9381EB91E0E0
:100740000E94E501FF91EF91BF91AF919F918F9131
:100750007F916F915F914F913F912F910F900FBEBD
:100760000F901F9018951F920F920FB60F921124A1
:100770002F938F939F93EF93FF93E091C101F0919B
:10078000C2018081E091C701F091C80182FD1BC0C8
:1007900090818091CA018F5F8F732091CB01821766
:1007A00041F0E091CA01F0E0EF54FE4F958F809345
:1007B000CA01FF91EF919F918F912F910F900FBEE2
:1007C0000F901F9018958081F4CFCF93DF931F92E5
:1007D000CDB7DEB7789484B5826084BD84B581607E
:1007E00084BD85B5826085BD85B5816085BD8091FC
:1007F0006E00816080936E00109281008091810074
:10080000826080938100809181008160809381006B
:10081000809180008160809380008091B10084602D
:100820008093B1008091B00081608093B00080918E
:100830007A00846080937A0080917A00826080934D
:100840007A0080917A00816080937A0080917A00AA
:10085000806880937A001092C100E091C101F0910C
:10086000C20182E08083E091BD01F091BE0110825F
:10087000E091BF01F091C00180E180831092C90135
:10088000E091C501F091C60186E08083E091C3014B
:10089000F091C401808180618083E091C301F09177
:1008A000C401808188608083E091C301F091C4011C
:1008B000808180688083E091C301F091C4018081D0
:1008C0008F7D808361E08AE00E94CF0062E082E059
:1008D0000E94CF0081E00E9487008FB78983F8943F
:1008E00080912601811126C0E6E8F0E08491EAE9D2
:1008F000F0E09491E82FF0E0EE0FFF1FE859FF4F72
:10090000A591B491EC91E92319F481E00E9487004C
:1009100061E08AE00E94CF008CB580618CBD8CB50F
:1009200080648CBD61E08DE00E94CF0061E08BE0CF
:100930000E94CF00809126018F5F80932601E9817C
:10094000EFBF8FE78CBD1DBC62E08CE00E94CF0042
:1009500087E591E090930301809302018091690003
:10096000836080936900E89A50E3652E51E0752E0C
:1009700060E0462E60E0562E81EB91E00E94C501BA
:1009800018161906BCF481EB91E00E94A301823A8B
:10099000910509F4A9C1C4F4803A910509F4A5C0F0
:1009A0000CF0A8C08435910509F4A7C080EE90E052
:1009B0000E94540241145104F9F20E94D10188238B
:1009C000D9F20E940000D8CF803B910509F4B1C054
:1009D0007CF5833A910551F765E070E080E090E0A6
:1009E0000E94250181EB91E00E94A3017C0181EB33
:1009F00091E00E94A30189831092270188E2C82E0A
:100A000081E0D82E86019EE1A92EB12C81EB91E0E8
:100A10000E94C501892B09F0F2C1F1E0AF1AB108BB
:100A200049F261E070E080E090E00E942501EECFA5
:100A3000813B910509F4B3C0823B910509F0B6CF23
:100A400080E00E9487008BE490E00197F1F74DE28F
:100A500050E06CE271E081E80E94CA024DE250E091
:100A60006CE271E08CE50E94CA024DE250E06CE25B
:100A700071E080E00E94CA024DE250E06CE271E059
:100A800080E00E94CA02182F682F81EB91E00E943B
:100A9000070211118FCF4DE250E06CE271E080E06F
:100AA0000E94CA02883009F085CF68E081EB91E0AE
:100AB0000E94070228E2E22E21E0F22E87013EE1A9
:100AC000C32ED12C81EB91E00E94C501892B09F046
:100AD000F3C081E0C81AD10809F45DC061E070E09C
:100AE00080E090E00E942501EDCF88E191E00E9436
:100AF000790260CF89E090E05BCF88E191E00E94CD
:100B000079028FE191E00E9479024AE060E070E0B2
:100B1000CB010E94860281E291E00E94790240E1CD
:100B200069E070E080E090E00E94860283E291E05C
:100B3000DECF80E00E9487008BE490E00197F1F720
:100B40004DE250E06CE271E081E80E94CA024DE2A1
:100B500050E06CE271E08AE50E94CA024DE250E08A
:100B60006CE271E080E00E94CA02682F81EB91E0A4
:100B70000E94070202E110E04DE250E06CE271E0F9
:100B800080E00E94CA02682F81EB91E00E94070278
:100B90000150110989F781E00E9487000BCF65E0C1
:100BA00070E080E090E00E94250181EB91E00E94DE
:100BB000A3018C0180E00E9487008BE490E0019704
:100BC000F1F74DE250E06CE271E081E80E94CA0268
:100BD0004DE250E06CE271E08BE50E94CA024DE20A
:100BE00050E06CE271E081E00E94CA024DE250E008
:100BF0006CE271E080E00E94CA02F82E682F81EB5F
:100C000091E00E940702F5E0FF12D4CE112716955D
:100C1000102F0027179507954DE250E06CE271E028
:100C2000802F0E94CA024DE250E06CE271E0812FF9
:100C30000E94CA024DE250E06CE271E080E00E9446
:100C4000CA024DE250E06CE271E084E00E94CA0208
:100C50004DE250E06CE271E080E80E94CA024DE291
:100C600050E06CE271E080E00E94CA02182F682F09
:100C700081EB91E00E940702103809F09BCE00E85A
:100C800010E04DE250E06CE271E080E80E94CA02A0
:100C9000682F81EB91E00E9407020150110989F74A
:100CA0004DE250E06CE271E080E00E94CA0287E40D
:100CB00090E00E9454026FCF81EB91E00E94A3016B
:100CC000F80181938F016E167F0609F0FBCE4DE28D
:100CD00050E06CE271E0F70181917F010E94CA024D
:100CE000E016F106A1F7DCCF65E070E080E090E06F
:100CF0000E94250181EB91E00E94A3018C0181EB10
:100D000091E00E94A301812C0829182B1092270141
:100D100080E00E9487008BE490E00197F1F746E4C1
:100D200050E064EF71E081E80E94CA024DE250E0B9
:100D300064EF71E082E50E94CA024DE250E064EF88
:100D400071E080E00E94CA024DE250E064EF71E081
:100D500080E00E94CA024DE250E064EF71E0802F13
:100D60000E94CA024DE250E064EF71E0812F0E94C0
:100D7000CA024DE250E060EF7AE080E00E94CA02D1
:100D800050E040E060EF7AE080E00E94CA0250E06C
:100D900040E060EF7AE080E00E94CA0250E040E06C
:100DA00060EF7AE080E00E94CA0200E810E050E0C4
:100DB00040E066E970E080E00E94CA02682F81EBA3
:100DC00091E00E9407020150110989F750E040E0CC
:100DD00064EF71E080E00E94CA02682F81EB91E02D
:100DE0000E94070250E040E064EF71E080E00E9462
:100DF000CA02682F81EB91E00E940702CCCE81EB02
:100E000091E00E94A301F80181938F01F1E0083A7B
:100E10001F0709F0FBCD3980212CE228F32880E060
:100E20000E9487008BE490E00197F1F74DE250E0DB
:100E30006CE271E081E80E94CA024DE250E06CE28F
:100E400071E087E50E94CA024DE250E06CE271E079
:100E500080E00E94CA024DE250E06CE271E080E066
:100E60000E94CA024DE250E06CE271E08E2D0E94B9
:100E7000CA024DE250E06CE271E08F2D0E94CA027E
:100E800050E040E066E970E0F60181916F010E9458
:100E9000CA020C151D05A1F781EB91E00E94A30188
:100EA00050E040E068EC70E00E94CA0250E040E090
:100EB00068EC70E080E00E94CA0250E040E068EC1C
:100EC00070E080E00E94CA0250E040E070E060E024
:100ED00080E00E94CA02682F81EB91E00E94070225
:100EE0008BEC97E00197F1F756CEE1EBF1E013823E
:100EF000128288EE93E0A0E0B0E084839583A6831D
:100F0000B7838AE091E09183808385EC90E09587B8
:100F1000848784EC90E09787868780EC90E0918BC3
:100F2000808B81EC90E0938B828B82EC90E0958BB0
:100F3000848B86EC90E0978B868B118E128E138EAD
:100F4000148E0895A1E21A2EAA1BBB1BFD010DC031
:100F5000AA1FBB1FEE1FFF1FA217B307E407F50769
:100F600020F0A21BB30BE40BF50B661F771F881F45
:100F7000991F1A9469F760957095809590959B01DB
:100F8000AC01BD01CF010895EE0FFF1F0590F49154
:080F9000E02D0994F894FFCF55
:100F98000100660166010000000007026701940174
:100FA8005902C501A301B7014D4344494E4F0020E2
:060FB800002E000D0A00EE
:00000001FF
