:100000000C945D000C9412030C94EB020C9485008C
:100010000C9485000C9485000C9485000C9485004C
:100020000C9485000C9485000C9485000C9485003C
:100030000C9485000C9485000C9485000C9485002C
:100040000C94A1020C9485000C945F030C9439036A
:100050000C9485000C9485000C9485000C9485000C
:100060000C9485000C9485000000000024002700FB
:100070002A0000000000250028002B0004040404CE
:100080000404040402020202020203030303030342
:10009000010204081020408001020408102001021F
:1000A00004081020000000080002010000030407FB
:1000B0000000000000000000780511241FBECFEFF3
:1000C000D8E0DEBFCDBF11E0A0E0B1E0EAE5FBE0A3
:1000D00002C005900D92A032B107D9F721E0A0E24D
:1000E000B1E001C01D92A83CB207E1F710E0CDE5F8
:1000F000D0E004C02197FE010E94A505CC35D107B0
:10010000C9F70E9491030C94AB050C9400008CBDC0
:100110009DBD089590E0FC01EC55FF4F2491FC013A
:10012000E057FF4F3491FC01E458FF4FE491EE2378
:10013000C9F0222339F0233001F1A8F4213019F15C
:10014000223029F1F0E0EE0FFF1FEE58FF4FA5918E
:10015000B4918FB7F894EC91611126C030953E238D
:100160003C938FBF08952730A9F02830C9F0243080
:1001700049F7809180008F7D03C0809180008F7748
:1001800080938000DFCF84B58F7784BDDBCF84B5CB
:100190008F7DFBCF8091B0008F778093B000D2CF5E
:1001A0008091B0008F7DF9CF3E2BDACFCF93DF93D4
:1001B00090E0FC01E057FF4F249184589F4FFC01D1
:1001C00084918823D1F090E0880F991FFC01E859B1
:1001D000FF4FA591B491FC01EE58FF4FC591D4910A
:1001E00061110EC09FB7F8948C91E22FE0958E2399
:1001F0008C932881E223E8839FBFDF91CF910895FC
:100200008FB7F894EC91E22BEC938FBFF6CF3FB70A
:10021000F8948091C3019091C401A091C501B0915F
:10022000C60126B5A89B05C02F3F19F00196A11D58
:10023000B11D3FBFBA2FA92F982F8827BC01CD0130
:10024000620F711D811D911D42E0660F771F881F8F
:10025000991F4A95D1F708958F929F92AF92BF92BE
:10026000CF92DF92EF92FF924B015C010E94070157
:100270006B017C010E9407016C197D098E099F09A1
:10028000683E734081059105A8F321E0821A910828
:10029000A108B10888EEC80E83E0D81EE11CF11C4D
:1002A00081149104A104B10429F7FF90EF90DF902D
:1002B000CF90BF90AF909F908F90089520910001B4
:1002C0003091010181E090E0232B11F090E080E07B
:1002D000909301018093000108950895AF92BF9219
:1002E000CF92DF92EF92FF920F931F93CF93DF9302
:1002F0006C017B018B01040F151FEB015E01AE1831
:10030000BF08C017D10759F06991D601ED91FC9152
:100310000190F081E02DC6010995892B79F7C5017F
:10032000DF91CF911F910F91FF90EF90DF90CF90D1
:10033000BF90AF900895FC01538D448D252F30E080
:10034000842F90E0821B930B541710F0CF960895E2
:1003500001970895FC01918D828D981761F0A28D0F
:10036000AE0FBF2FB11D5D968C91928D9F5F9F73D5
:10037000928F90E008958FEF9FEF0895FC01918D8B
:10038000828D981731F0828DE80FF11D858D90E0F8
:1003900008958FEF9FEF0895FC01918D228D892F95
:1003A00090E0805C9F4F821B91098F73992708957D
:1003B00081E291E00E94CC0121E0892B09F420E048
:1003C000822F089580E090E0892B29F00E94D801C7
:1003D00081110C9400000895FC01A48DA80FB92F81
:1003E000B11DA35ABF4F2C91848D90E001968F735D
:1003F0009927848FA689B7892C93A089B1898C917C
:10040000837080648C93938D848D981306C00288CA
:10041000F389E02D80818F7D80830895EF92FF9294
:100420000F931F93CF93DF93EC0181E0888F9B8D17
:100430008C8D98131AC0E889F989808185FF15C0D1
:100440009FB7F894EE89FF896083E889F9898081F4
:100450008370806480839FBF81E090E0DF91CF91C3
:100460001F910F91FF90EF900895F62E0B8D10E0E5
:100470000F5F1F4F0F731127E02E8C8D8E110CC054
:100480000FB607FCFACFE889F989808185FFF5CF9F
:10049000CE010E94EC01F1CFEB8DEC0FFD2FF11D91
:1004A000E35AFF4FF0829FB7F8940B8FEA89FB89DC
:1004B00080818062CFCFCF93DF93EC01888D88233A
:1004C000B9F0AA89BB89E889F9898C9185FD03C0B7
:1004D000808186FD0DC00FB607FCF7CF8C9185FF9C
:1004E000F2CF808185FFEDCFCE010E94EC01E9CFF4
:1004F000DF91CF9108958FB7F8948091C7018FBF96
:10050000089590912001911102C068EB7BE021E0F9
:1005100030E030930101209300018EBD00000DB446
:1005200007FEFDCF8EB520910001309101012130F1
:10053000310531F461507109B1F791E090932001D8
:1005400008951F920F920FB60F9211242F933F938D
:100550008F939F93AF93BF938091BF019091C00100
:10056000A091C101B091C2013091BE0123E0230FDF
:100570002D3758F50196A11DB11D2093BE01809322
:10058000BF019093C001A093C101B093C2018091BB
:10059000C3019091C401A091C501B091C60101961B
:1005A000A11DB11D8093C3019093C401A093C50107
:1005B000B093C601BF91AF919F918F913F912F91C1
:1005C0000F900FBE0F901F90189526E8230F0296EC
:1005D000A11DB11DD2CF1F920F920FB60F92112401
:1005E0002F933F934F935F936F937F938F939F933B
:1005F000AF93BF93EF93FF93E0910401F091050156
:100600000995FF91EF91BF91AF919F918F917F914C
:100610006F915F914F913F912F910F900FBE0F906F
:100620001F9018951F920F920FB60F9211242F93BF
:100630003F934F935F936F937F938F939F93AF936A
:10064000BF93EF93FF93E0910201F09103010995AD
:10065000FF91EF91BF91AF919F918F917F916F919A
:100660005F914F913F912F910F900FBE0F901F9070
:1006700018951F920F920FB60F9211242F933F934C
:100680004F935F936F937F938F939F93AF93BF939A
:10069000EF93FF9381E291E00E94EC01FF91EF91D3
:1006A000BF91AF919F918F917F916F915F914F918A
:1006B0003F912F910F900FBE0F901F9018951F9292
:1006C0000F920FB60F9211242F938F939F93EF9356
:1006D000FF93E0913101F09132018081E091370187
:1006E000F091380182FD1BC0908180913A018F5FAB
:1006F0008F7320913B01821741F0E0913A01F0E0C5
:10070000EF5DFE4F958F80933A01FF91EF919F919E
:100710008F912F910F900FBE0F901F901895808191
:10072000F4CFCF93DF93CDB7DEB7C058D1090FB662
:10073000F894DEBF0FBECDBF789484B5826084BDCF
:1007400084B5816084BD85B5826085BD85B58160D5
:1007500085BD80916E00816080936E001092810053
:10076000809181008260809381008091810081600E
:1007700080938100809180008160809380008091CF
:10078000B10084608093B1008091B000816080935B
:10079000B00080917A00846080937A0080917A0022
:1007A000826080937A0080917A00816080937A00E1
:1007B00080917A00806880937A001092C100E09165
:1007C0003101F091320182E08083E0912D01F091BE
:1007D0002E011082E0912F01F091300183E380839C
:1007E00010923901E0913501F091360186E0808365
:1007F000E0913301F0913401808180618083E09148
:100800003301F0913401808188608083E09133016D
:10081000F0913401808180688083E0913301F09110
:10082000340180818F7D808360E08CE00E94D6005F
:1008300061E08BE00E94D60061E08AE00E94D60071
:1008400061E08DE00E94D60060E082E00E94D60068
:1008500061E08CE00E948A0060E08BE00E948A00E8
:1008600061E08AE00E948A0061E08DE00E948A00D7
:1008700061E082E00E948A008EE591E0909303019E
:1008800080930201809169008C7F8260809369006F
:10089000E89A4E0181E8880E911C90E0A92E90E024
:1008A000B92E81E291E00E94CC01181619060CF0D5
:1008B00071C081E291E00E94AA01813A09F476C0F8
:1008C00048F4803A09F45EC060EE81E291E00E9453
:1008D0000E0260C0823A09F46BC0833AA9F765E062
:1008E00070E080E090E00E942C0181E291E00E94A3
:1008F000AA018C0181E291E00E94AA01612C0629E3
:10090000182B1092200160E08AE00E948A008EE796
:1009100090E00E9487006CE271E081E80E94810211
:100920006CE271E087E50E9481026CE271E080E098
:100930000E9481026CE271E080E00E9481026CE220
:1009400071E0802F0E9481026CE271E0812F0E9491
:100950008102FE0131967F018F018EE1C82ED12CDC
:1009600081E291E00E94CC01892B09F097C0F1E06F
:10097000CF1AD10879F061E070E080E090E00E9449
:100980002C01EECF46E050E068E171E081E291E0B9
:100990000E946E01A114B10409F483CF0E94D80112
:1009A000882309F47ECF0E9400007BCF64E08DCFC6
:1009B00065E070E080E090E00E942C0181E291E02F
:1009C0000E94AA018C0181E291E00E94AA01412CBF
:1009D0000429182B1092200160E08AE00E948A000E
:1009E0008EE790E00E94870064EF71E081E80E944A
:1009F000810264EF71E082E50E94810264EF71E0A0
:100A000080E00E94810264EF71E080E00E94810238
:100A100064EF71E0802F0E94810264EF71E0812F0A
:100A20000E94810260EF7AE080E00E94810260EF24
:100A30007AE080E00E94810260EF7AE080E00E942C
:100A4000810260EF7AE080E00E94810200E810E01D
:100A500066E970E080E00E948102682F81E291E007
:100A60000E940E020150110999F764EF71E080E0D5
:100A70000E948102682F81E291E00E940E0264EFE1
:100A800071E080E00E948102682F81E291E00E9483
:100A90000E0261E08AE00E948A007CCF81E291E050
:100AA0000E94AA01F80181938F018E169F0609F01A
:100AB00057CF66E970E0F70181917F010E948102C2
:100AC000E016F106B1F781E291E00E94AA0168EC1C
:100AD00070E00E94810268EC70E080E00E94810278
:100AE00068EC70E080E00E94810268EC70E0C9CFA1
:100AF000E1E2F1E01382128288EE93E0A0E0B0E040
:100B000084839583A683B7838AE091E09183808371
:100B100085EC90E09587848784EC90E097878687C2
:100B200080EC90E0918B808B81EC90E0938B828BBA
:100B300082EC90E0958B848B86EC90E0978B868B93
:100B4000118E128E138E148E0895EE0FFF1F0590D6
:0A0B5000F491E02D0994F894FFCF12
:100B5A0001006D016D01000000000E026E019B0193
:100B6A005B02CC01AA01BE014D4344494E4F00002D
:00000001FF
